{
  "_format": "hh-sol-artifact-1",
  "contractName": "ModifierReverseAuction",
  "sourceName": "contracts/NFTModifier.sol",
  "abi": [
    {
      "inputs": [],
      "stateMutability": "nonpayable",
      "type": "constructor"
    },
    {
      "anonymous": false,
      "inputs": [
        {
          "indexed": false,
          "internalType": "address",
          "name": "previousAdmin",
          "type": "address"
        },
        {
          "indexed": false,
          "internalType": "address",
          "name": "newAdmin",
          "type": "address"
        }
      ],
      "name": "AdminChanged",
      "type": "event"
    },
    {
      "anonymous": false,
      "inputs": [
        {
          "indexed": true,
          "internalType": "address",
          "name": "owner",
          "type": "address"
        },
        {
          "indexed": true,
          "internalType": "address",
          "name": "approved",
          "type": "address"
        },
        {
          "indexed": true,
          "internalType": "uint256",
          "name": "tokenId",
          "type": "uint256"
        }
      ],
      "name": "Approval",
      "type": "event"
    },
    {
      "anonymous": false,
      "inputs": [
        {
          "indexed": true,
          "internalType": "address",
          "name": "owner",
          "type": "address"
        },
        {
          "indexed": true,
          "internalType": "address",
          "name": "operator",
          "type": "address"
        },
        {
          "indexed": false,
          "internalType": "bool",
          "name": "approved",
          "type": "bool"
        }
      ],
      "name": "ApprovalForAll",
      "type": "event"
    },
    {
      "anonymous": false,
      "inputs": [
        {
          "indexed": false,
          "internalType": "uint256",
          "name": "_fromTokenId",
          "type": "uint256"
        },
        {
          "indexed": false,
          "internalType": "uint256",
          "name": "_toTokenId",
          "type": "uint256"
        }
      ],
      "name": "BatchMetadataUpdate",
      "type": "event"
    },
    {
      "anonymous": false,
      "inputs": [
        {
          "indexed": true,
          "internalType": "address",
          "name": "beacon",
          "type": "address"
        }
      ],
      "name": "BeaconUpgraded",
      "type": "event"
    },
    {
      "anonymous": false,
      "inputs": [
        {
          "indexed": false,
          "internalType": "uint8",
          "name": "version",
          "type": "uint8"
        }
      ],
      "name": "Initialized",
      "type": "event"
    },
    {
      "anonymous": false,
      "inputs": [
        {
          "indexed": false,
          "internalType": "uint256",
          "name": "_tokenId",
          "type": "uint256"
        }
      ],
      "name": "MetadataUpdate",
      "type": "event"
    },
    {
      "anonymous": false,
      "inputs": [
        {
          "indexed": true,
          "internalType": "bytes32",
          "name": "role",
          "type": "bytes32"
        },
        {
          "indexed": true,
          "internalType": "bytes32",
          "name": "previousAdminRole",
          "type": "bytes32"
        },
        {
          "indexed": true,
          "internalType": "bytes32",
          "name": "newAdminRole",
          "type": "bytes32"
        }
      ],
      "name": "RoleAdminChanged",
      "type": "event"
    },
    {
      "anonymous": false,
      "inputs": [
        {
          "indexed": true,
          "internalType": "bytes32",
          "name": "role",
          "type": "bytes32"
        },
        {
          "indexed": true,
          "internalType": "address",
          "name": "account",
          "type": "address"
        },
        {
          "indexed": true,
          "internalType": "address",
          "name": "sender",
          "type": "address"
        }
      ],
      "name": "RoleGranted",
      "type": "event"
    },
    {
      "anonymous": false,
      "inputs": [
        {
          "indexed": true,
          "internalType": "bytes32",
          "name": "role",
          "type": "bytes32"
        },
        {
          "indexed": true,
          "internalType": "address",
          "name": "account",
          "type": "address"
        },
        {
          "indexed": true,
          "internalType": "address",
          "name": "sender",
          "type": "address"
        }
      ],
      "name": "RoleRevoked",
      "type": "event"
    },
    {
      "anonymous": false,
      "inputs": [
        {
          "indexed": true,
          "internalType": "address",
          "name": "from",
          "type": "address"
        },
        {
          "indexed": true,
          "internalType": "address",
          "name": "to",
          "type": "address"
        },
        {
          "indexed": true,
          "internalType": "uint256",
          "name": "tokenId",
          "type": "uint256"
        }
      ],
      "name": "Transfer",
      "type": "event"
    },
    {
      "anonymous": false,
      "inputs": [
        {
          "indexed": true,
          "internalType": "address",
          "name": "implementation",
          "type": "address"
        }
      ],
      "name": "Upgraded",
      "type": "event"
    },
    {
      "inputs": [],
      "name": "DEFAULT_ADMIN_ROLE",
      "outputs": [
        {
          "internalType": "bytes32",
          "name": "",
          "type": "bytes32"
        }
      ],
      "stateMutability": "view",
      "type": "function"
    },
    {
      "inputs": [],
      "name": "MINTER_ROLE",
      "outputs": [
        {
          "internalType": "bytes32",
          "name": "",
          "type": "bytes32"
        }
      ],
      "stateMutability": "view",
      "type": "function"
    },
    {
      "inputs": [],
      "name": "UPGRADER_ROLE",
      "outputs": [
        {
          "internalType": "bytes32",
          "name": "",
          "type": "bytes32"
        }
      ],
      "stateMutability": "view",
      "type": "function"
    },
    {
      "inputs": [],
      "name": "URI_SETTER_ROLE",
      "outputs": [
        {
          "internalType": "bytes32",
          "name": "",
          "type": "bytes32"
        }
      ],
      "stateMutability": "view",
      "type": "function"
    },
    {
      "inputs": [
        {
          "internalType": "address",
          "name": "to",
          "type": "address"
        },
        {
          "internalType": "uint256",
          "name": "tokenId",
          "type": "uint256"
        }
      ],
      "name": "approve",
      "outputs": [],
      "stateMutability": "nonpayable",
      "type": "function"
    },
    {
      "inputs": [
        {
          "internalType": "address",
          "name": "owner",
          "type": "address"
        }
      ],
      "name": "balanceOf",
      "outputs": [
        {
          "internalType": "uint256",
          "name": "",
          "type": "uint256"
        }
      ],
      "stateMutability": "view",
      "type": "function"
    },
    {
      "inputs": [
        {
          "internalType": "uint256",
          "name": "tokenId",
          "type": "uint256"
        }
      ],
      "name": "burn",
      "outputs": [],
      "stateMutability": "nonpayable",
      "type": "function"
    },
    {
      "inputs": [
        {
          "internalType": "uint256",
          "name": "tokenId",
          "type": "uint256"
        }
      ],
      "name": "getApproved",
      "outputs": [
        {
          "internalType": "address",
          "name": "",
          "type": "address"
        }
      ],
      "stateMutability": "view",
      "type": "function"
    },
    {
      "inputs": [],
      "name": "getMyModifiers",
      "outputs": [
        {
          "internalType": "uint256[]",
          "name": "",
          "type": "uint256[]"
        }
      ],
      "stateMutability": "view",
      "type": "function"
    },
    {
      "inputs": [
        {
          "internalType": "bytes32",
          "name": "role",
          "type": "bytes32"
        }
      ],
      "name": "getRoleAdmin",
      "outputs": [
        {
          "internalType": "bytes32",
          "name": "",
          "type": "bytes32"
        }
      ],
      "stateMutability": "view",
      "type": "function"
    },
    {
      "inputs": [
        {
          "internalType": "bytes32",
          "name": "role",
          "type": "bytes32"
        },
        {
          "internalType": "address",
          "name": "account",
          "type": "address"
        }
      ],
      "name": "grantRole",
      "outputs": [],
      "stateMutability": "nonpayable",
      "type": "function"
    },
    {
      "inputs": [
        {
          "internalType": "bytes32",
          "name": "role",
          "type": "bytes32"
        },
        {
          "internalType": "address",
          "name": "account",
          "type": "address"
        }
      ],
      "name": "hasRole",
      "outputs": [
        {
          "internalType": "bool",
          "name": "",
          "type": "bool"
        }
      ],
      "stateMutability": "view",
      "type": "function"
    },
    {
      "inputs": [
        {
          "internalType": "uint256",
          "name": "",
          "type": "uint256"
        }
      ],
      "name": "informationOf",
      "outputs": [
        {
          "internalType": "uint256",
          "name": "typeMod",
          "type": "uint256"
        },
        {
          "internalType": "uint256",
          "name": "value",
          "type": "uint256"
        }
      ],
      "stateMutability": "view",
      "type": "function"
    },
    {
      "inputs": [],
      "name": "initialize",
      "outputs": [],
      "stateMutability": "nonpayable",
      "type": "function"
    },
    {
      "inputs": [
        {
          "internalType": "address",
          "name": "owner",
          "type": "address"
        },
        {
          "internalType": "address",
          "name": "operator",
          "type": "address"
        }
      ],
      "name": "isApprovedForAll",
      "outputs": [
        {
          "internalType": "bool",
          "name": "",
          "type": "bool"
        }
      ],
      "stateMutability": "view",
      "type": "function"
    },
    {
      "inputs": [],
      "name": "name",
      "outputs": [
        {
          "internalType": "string",
          "name": "",
          "type": "string"
        }
      ],
      "stateMutability": "view",
      "type": "function"
    },
    {
      "inputs": [
        {
          "internalType": "uint256",
          "name": "tokenId",
          "type": "uint256"
        }
      ],
      "name": "ownerOf",
      "outputs": [
        {
          "internalType": "address",
          "name": "",
          "type": "address"
        }
      ],
      "stateMutability": "view",
      "type": "function"
    },
    {
      "inputs": [],
      "name": "proxiableUUID",
      "outputs": [
        {
          "internalType": "bytes32",
          "name": "",
          "type": "bytes32"
        }
      ],
      "stateMutability": "view",
      "type": "function"
    },
    {
      "inputs": [
        {
          "internalType": "bytes32",
          "name": "role",
          "type": "bytes32"
        },
        {
          "internalType": "address",
          "name": "account",
          "type": "address"
        }
      ],
      "name": "renounceRole",
      "outputs": [],
      "stateMutability": "nonpayable",
      "type": "function"
    },
    {
      "inputs": [
        {
          "internalType": "bytes32",
          "name": "role",
          "type": "bytes32"
        },
        {
          "internalType": "address",
          "name": "account",
          "type": "address"
        }
      ],
      "name": "revokeRole",
      "outputs": [],
      "stateMutability": "nonpayable",
      "type": "function"
    },
    {
      "inputs": [
        {
          "internalType": "address",
          "name": "to",
          "type": "address"
        },
        {
          "internalType": "uint256",
          "name": "tokenId",
          "type": "uint256"
        },
        {
          "internalType": "uint256",
          "name": "typeMod",
          "type": "uint256"
        },
        {
          "internalType": "uint256",
          "name": "value",
          "type": "uint256"
        }
      ],
      "name": "safeMint",
      "outputs": [],
      "stateMutability": "nonpayable",
      "type": "function"
    },
    {
      "inputs": [
        {
          "internalType": "address",
          "name": "from",
          "type": "address"
        },
        {
          "internalType": "address",
          "name": "to",
          "type": "address"
        },
        {
          "internalType": "uint256",
          "name": "tokenId",
          "type": "uint256"
        }
      ],
      "name": "safeTransferFrom",
      "outputs": [],
      "stateMutability": "nonpayable",
      "type": "function"
    },
    {
      "inputs": [
        {
          "internalType": "address",
          "name": "from",
          "type": "address"
        },
        {
          "internalType": "address",
          "name": "to",
          "type": "address"
        },
        {
          "internalType": "uint256",
          "name": "tokenId",
          "type": "uint256"
        },
        {
          "internalType": "bytes",
          "name": "data",
          "type": "bytes"
        }
      ],
      "name": "safeTransferFrom",
      "outputs": [],
      "stateMutability": "nonpayable",
      "type": "function"
    },
    {
      "inputs": [
        {
          "internalType": "address",
          "name": "operator",
          "type": "address"
        },
        {
          "internalType": "bool",
          "name": "approved",
          "type": "bool"
        }
      ],
      "name": "setApprovalForAll",
      "outputs": [],
      "stateMutability": "nonpayable",
      "type": "function"
    },
    {
      "inputs": [
        {
          "internalType": "uint256",
          "name": "tokenId",
          "type": "uint256"
        },
        {
          "internalType": "string",
          "name": "uri",
          "type": "string"
        }
      ],
      "name": "setTokenURI",
      "outputs": [],
      "stateMutability": "nonpayable",
      "type": "function"
    },
    {
      "inputs": [
        {
          "internalType": "bytes4",
          "name": "interfaceId",
          "type": "bytes4"
        }
      ],
      "name": "supportsInterface",
      "outputs": [
        {
          "internalType": "bool",
          "name": "",
          "type": "bool"
        }
      ],
      "stateMutability": "view",
      "type": "function"
    },
    {
      "inputs": [],
      "name": "symbol",
      "outputs": [
        {
          "internalType": "string",
          "name": "",
          "type": "string"
        }
      ],
      "stateMutability": "view",
      "type": "function"
    },
    {
      "inputs": [
        {
          "internalType": "uint256",
          "name": "index",
          "type": "uint256"
        }
      ],
      "name": "tokenByIndex",
      "outputs": [
        {
          "internalType": "uint256",
          "name": "",
          "type": "uint256"
        }
      ],
      "stateMutability": "view",
      "type": "function"
    },
    {
      "inputs": [
        {
          "internalType": "address",
          "name": "owner",
          "type": "address"
        },
        {
          "internalType": "uint256",
          "name": "index",
          "type": "uint256"
        }
      ],
      "name": "tokenOfOwnerByIndex",
      "outputs": [
        {
          "internalType": "uint256",
          "name": "",
          "type": "uint256"
        }
      ],
      "stateMutability": "view",
      "type": "function"
    },
    {
      "inputs": [
        {
          "internalType": "uint256",
          "name": "_tokenId",
          "type": "uint256"
        }
      ],
      "name": "tokenType",
      "outputs": [
        {
          "internalType": "uint256",
          "name": "",
          "type": "uint256"
        }
      ],
      "stateMutability": "view",
      "type": "function"
    },
    {
      "inputs": [
        {
          "internalType": "uint256",
          "name": "tokenId",
          "type": "uint256"
        }
      ],
      "name": "tokenURI",
      "outputs": [
        {
          "internalType": "string",
          "name": "",
          "type": "string"
        }
      ],
      "stateMutability": "view",
      "type": "function"
    },
    {
      "inputs": [
        {
          "internalType": "uint256",
          "name": "_tokenId",
          "type": "uint256"
        }
      ],
      "name": "tokenValue",
      "outputs": [
        {
          "internalType": "uint256",
          "name": "",
          "type": "uint256"
        }
      ],
      "stateMutability": "view",
      "type": "function"
    },
    {
      "inputs": [],
      "name": "totalSupply",
      "outputs": [
        {
          "internalType": "uint256",
          "name": "",
          "type": "uint256"
        }
      ],
      "stateMutability": "view",
      "type": "function"
    },
    {
      "inputs": [
        {
          "internalType": "address",
          "name": "from",
          "type": "address"
        },
        {
          "internalType": "address",
          "name": "to",
          "type": "address"
        },
        {
          "internalType": "uint256",
          "name": "tokenId",
          "type": "uint256"
        }
      ],
      "name": "transferFrom",
      "outputs": [],
      "stateMutability": "nonpayable",
      "type": "function"
    },
    {
      "inputs": [
        {
          "internalType": "address",
          "name": "newImplementation",
          "type": "address"
        }
      ],
      "name": "upgradeTo",
      "outputs": [],
      "stateMutability": "nonpayable",
      "type": "function"
    },
    {
      "inputs": [
        {
          "internalType": "address",
          "name": "newImplementation",
          "type": "address"
        },
        {
          "internalType": "bytes",
          "name": "data",
          "type": "bytes"
        }
      ],
      "name": "upgradeToAndCall",
      "outputs": [],
      "stateMutability": "payable",
      "type": "function"
    }
  ],
  "bytecode": "0x60a0604052306080523480156200001557600080fd5b506200002062000026565b620000e7565b600054610100900460ff1615620000935760405162461bcd60e51b815260206004820152602760248201527f496e697469616c697a61626c653a20636f6e747261637420697320696e697469604482015266616c697a696e6760c81b606482015260840160405180910390fd5b60005460ff90811614620000e5576000805460ff191660ff9081179091556040519081527f7f26b83ff96e1f2b6a682f133852f6798a09c465da95921460cefb38474024989060200160405180910390a15b565b6080516137a96200011f60003960008181610bc301528181610c4801528181610dcd01528181610e520152610fdc01526137a96000f3fe60806040526004361061024f5760003560e01c80636352211e11610138578063c87b56dd116100b0578063e4c8f51c1161007f578063e985e9c511610064578063e985e9c514610716578063f72c0d8b1461075f578063faa07ec11461079357600080fd5b8063e4c8f51c146106c6578063e6c3b1f6146106e857600080fd5b8063c87b56dd14610621578063cb91449114610641578063d539139314610672578063d547741f146106a657600080fd5b806391d1485411610107578063a217fddf116100ec578063a217fddf146105cc578063a22cb465146105e1578063b88d4fde1461060157600080fd5b806391d148541461057057806395d89b41146105b757600080fd5b80636352211e146104e757806370a08231146105075780637f345710146105275780638129fc1c1461055b57600080fd5b80632f745c59116101cb57806342966c681161019a5780634f6ccce71161017f5780634f6ccce71461046857806350cffb681461048857806352d1902d146104d257600080fd5b806342966c68146104355780634f1ef2861461045557600080fd5b80632f745c59146103b557806336568abe146103d55780633659cfe6146103f557806342842e0e1461041557600080fd5b8063162094c41161022257806323b872dd1161020757806323b872dd14610344578063248a9ca3146103645780632f2ff15d1461039557600080fd5b8063162094c41461030557806318160ddd1461032557600080fd5b806301ffc9a71461025457806306fdde0314610289578063081812fc146102ab578063095ea7b3146102e3575b600080fd5b34801561026057600080fd5b5061027461026f366004613029565b6107b3565b60405190151581526020015b60405180910390f35b34801561029557600080fd5b5061029e6107c4565b6040516102809190613096565b3480156102b757600080fd5b506102cb6102c63660046130a9565b610856565b6040516001600160a01b039091168152602001610280565b3480156102ef57600080fd5b506103036102fe3660046130de565b61087d565b005b34801561031157600080fd5b50610303610320366004613194565b6109b3565b34801561033157600080fd5b506099545b604051908152602001610280565b34801561035057600080fd5b5061030361035f3660046131ef565b6109e7565b34801561037057600080fd5b5061033661037f3660046130a9565b600090815261012d602052604090206001015490565b3480156103a157600080fd5b506103036103b036600461322b565b610a5f565b3480156103c157600080fd5b506103366103d03660046130de565b610a85565b3480156103e157600080fd5b506103036103f036600461322b565b610b2d565b34801561040157600080fd5b50610303610410366004613257565b610bb9565b34801561042157600080fd5b506103036104303660046131ef565b610d34565b34801561044157600080fd5b506103036104503660046130a9565b610d4f565b610303610463366004613292565b610dc3565b34801561047457600080fd5b506103366104833660046130a9565b610f2b565b34801561049457600080fd5b506104bd6104a33660046130a9565b6101c4602052600090815260409020805460019091015482565b60408051928352602083019190915201610280565b3480156104de57600080fd5b50610336610fcf565b3480156104f357600080fd5b506102cb6105023660046130a9565b611094565b34801561051357600080fd5b50610336610522366004613257565b6110f9565b34801561053357600080fd5b506103367f7804d923f43a17d325d77e781528e0793b2edd9890ab45fc64efd7b4b427744c81565b34801561056757600080fd5b50610303611193565b34801561057c57600080fd5b5061027461058b36600461322b565b600091825261012d602090815260408084206001600160a01b0393909316845291905290205460ff1690565b3480156105c357600080fd5b5061029e61139d565b3480156105d857600080fd5b50610336600081565b3480156105ed57600080fd5b506103036105fc3660046132d6565b6113ac565b34801561060d57600080fd5b5061030361061c366004613312565b6113b7565b34801561062d57600080fd5b5061029e61063c3660046130a9565b611435565b34801561064d57600080fd5b5061033661065c3660046130a9565b60009081526101c4602052604090206001015490565b34801561067e57600080fd5b506103367f9f2df0fed2c77648de5860a4cc508cd0818c85b8b8a1ab4ceeef8d981c8956a681565b3480156106b257600080fd5b506103036106c136600461322b565b611440565b3480156106d257600080fd5b506106db611466565b604051610280919061337a565b3480156106f457600080fd5b506103366107033660046130a9565b60009081526101c4602052604090205490565b34801561072257600080fd5b506102746107313660046133be565b6001600160a01b039182166000908152606a6020908152604080832093909416825291909152205460ff1690565b34801561076b57600080fd5b506103367f189ab7a9244df0848122154315af71fe140f3db0fe014031783b0946b8c9d2e381565b34801561079f57600080fd5b506103036107ae3660046133e8565b611507565b60006107be8261156c565b92915050565b6060606580546107d390613421565b80601f01602080910402602001604051908101604052809291908181526020018280546107ff90613421565b801561084c5780601f106108215761010080835404028352916020019161084c565b820191906000526020600020905b81548152906001019060200180831161082f57829003601f168201915b5050505050905090565b6000610861826115aa565b506000908152606960205260409020546001600160a01b031690565b600061088882611094565b9050806001600160a01b0316836001600160a01b0316036109165760405162461bcd60e51b815260206004820152602160248201527f4552433732313a20617070726f76616c20746f2063757272656e74206f776e6560448201527f720000000000000000000000000000000000000000000000000000000000000060648201526084015b60405180910390fd5b336001600160a01b038216148061093257506109328133610731565b6109a45760405162461bcd60e51b815260206004820152603d60248201527f4552433732313a20617070726f76652063616c6c6572206973206e6f7420746f60448201527f6b656e206f776e6572206f7220617070726f76656420666f7220616c6c000000606482015260840161090d565b6109ae838361160e565b505050565b7f7804d923f43a17d325d77e781528e0793b2edd9890ab45fc64efd7b4b427744c6109dd8161167c565b6109ae8383611686565b6109f2335b82611760565b610a545760405162461bcd60e51b815260206004820152602d60248201527f4552433732313a2063616c6c6572206973206e6f7420746f6b656e206f776e6560448201526c1c881bdc88185c1c1c9bdd9959609a1b606482015260840161090d565b6109ae8383836117df565b600082815261012d6020526040902060010154610a7b8161167c565b6109ae83836119e5565b6000610a90836110f9565b8210610b045760405162461bcd60e51b815260206004820152602b60248201527f455243373231456e756d657261626c653a206f776e657220696e646578206f7560448201527f74206f6620626f756e6473000000000000000000000000000000000000000000606482015260840161090d565b506001600160a01b03919091166000908152609760209081526040808320938352929052205490565b6001600160a01b0381163314610bab5760405162461bcd60e51b815260206004820152602f60248201527f416363657373436f6e74726f6c3a2063616e206f6e6c792072656e6f756e636560448201527f20726f6c657320666f722073656c660000000000000000000000000000000000606482015260840161090d565b610bb58282611a89565b5050565b6001600160a01b037f0000000000000000000000000000000000000000000000000000000000000000163003610c465760405162461bcd60e51b815260206004820152602c60248201527f46756e6374696f6e206d7573742062652063616c6c6564207468726f7567682060448201526b19195b1959d85d1958d85b1b60a21b606482015260840161090d565b7f00000000000000000000000000000000000000000000000000000000000000006001600160a01b0316610ca17f360894a13ba1a3210667c828492db98dca3e2076cc3735a920a3ca505d382bbc546001600160a01b031690565b6001600160a01b031614610d0c5760405162461bcd60e51b815260206004820152602c60248201527f46756e6374696f6e206d7573742062652063616c6c6564207468726f7567682060448201526b6163746976652070726f787960a01b606482015260840161090d565b610d1581611b0e565b60408051600080825260208201909252610d3191839190611b38565b50565b6109ae838383604051806020016040528060008152506113b7565b610d58336109ec565b610dba5760405162461bcd60e51b815260206004820152602d60248201527f4552433732313a2063616c6c6572206973206e6f7420746f6b656e206f776e6560448201526c1c881bdc88185c1c1c9bdd9959609a1b606482015260840161090d565b610d3181611cd8565b6001600160a01b037f0000000000000000000000000000000000000000000000000000000000000000163003610e505760405162461bcd60e51b815260206004820152602c60248201527f46756e6374696f6e206d7573742062652063616c6c6564207468726f7567682060448201526b19195b1959d85d1958d85b1b60a21b606482015260840161090d565b7f00000000000000000000000000000000000000000000000000000000000000006001600160a01b0316610eab7f360894a13ba1a3210667c828492db98dca3e2076cc3735a920a3ca505d382bbc546001600160a01b031690565b6001600160a01b031614610f165760405162461bcd60e51b815260206004820152602c60248201527f46756e6374696f6e206d7573742062652063616c6c6564207468726f7567682060448201526b6163746976652070726f787960a01b606482015260840161090d565b610f1f82611b0e565b610bb582826001611b38565b6000610f3660995490565b8210610faa5760405162461bcd60e51b815260206004820152602c60248201527f455243373231456e756d657261626c653a20676c6f62616c20696e646578206f60448201527f7574206f6620626f756e64730000000000000000000000000000000000000000606482015260840161090d565b60998281548110610fbd57610fbd61345b565b90600052602060002001549050919050565b6000306001600160a01b037f0000000000000000000000000000000000000000000000000000000000000000161461106f5760405162461bcd60e51b815260206004820152603860248201527f555550535570677261646561626c653a206d757374206e6f742062652063616c60448201527f6c6564207468726f7567682064656c656761746563616c6c0000000000000000606482015260840161090d565b507f360894a13ba1a3210667c828492db98dca3e2076cc3735a920a3ca505d382bbc90565b6000818152606760205260408120546001600160a01b0316806107be5760405162461bcd60e51b815260206004820152601860248201527f4552433732313a20696e76616c696420746f6b656e2049440000000000000000604482015260640161090d565b60006001600160a01b0382166111775760405162461bcd60e51b815260206004820152602960248201527f4552433732313a2061646472657373207a65726f206973206e6f74206120766160448201527f6c6964206f776e65720000000000000000000000000000000000000000000000606482015260840161090d565b506001600160a01b031660009081526068602052604090205490565b600054610100900460ff16158080156111b35750600054600160ff909116105b806111cd5750303b1580156111cd575060005460ff166001145b61123f5760405162461bcd60e51b815260206004820152602e60248201527f496e697469616c697a61626c653a20636f6e747261637420697320616c72656160448201527f647920696e697469616c697a6564000000000000000000000000000000000000606482015260840161090d565b6000805460ff191660011790558015611262576000805461ff0019166101001790555b6112d66040518060400160405280601681526020017f4d6f6469666965725265766572736541756374696f6e000000000000000000008152506040518060400160405280600581526020017f4d4f445241000000000000000000000000000000000000000000000000000000815250611ce1565b6112de611d56565b6112e6611d56565b6112ee611d56565b6112f6611d56565b6113016000336119e5565b61132b7f9f2df0fed2c77648de5860a4cc508cd0818c85b8b8a1ab4ceeef8d981c8956a6336119e5565b6113557f189ab7a9244df0848122154315af71fe140f3db0fe014031783b0946b8c9d2e3336119e5565b8015610d31576000805461ff0019169055604051600181527f7f26b83ff96e1f2b6a682f133852f6798a09c465da95921460cefb38474024989060200160405180910390a150565b6060606680546107d390613421565b610bb5338383611dc3565b6113c13383611760565b6114235760405162461bcd60e51b815260206004820152602d60248201527f4552433732313a2063616c6c6572206973206e6f7420746f6b656e206f776e6560448201526c1c881bdc88185c1c1c9bdd9959609a1b606482015260840161090d565b61142f84848484611e91565b50505050565b60606107be82611f0f565b600082815261012d602052604090206001015461145c8161167c565b6109ae8383611a89565b60606000611473336110f9565b905060008167ffffffffffffffff81111561149057611490613108565b6040519080825280602002602001820160405280156114b9578160200160208202803683370190505b50905060005b82811015611500576114d13382610a85565b8282815181106114e3576114e361345b565b6020908102919091010152806114f881613487565b9150506114bf565b5092915050565b7f9f2df0fed2c77648de5860a4cc508cd0818c85b8b8a1ab4ceeef8d981c8956a66115318161167c565b61153b8585612026565b50604080518082018252928352602080840192835260009485526101c4905290922090518155905160019091015550565b60006001600160e01b031982167f7965db0b0000000000000000000000000000000000000000000000000000000014806107be57506107be82612040565b6000818152606760205260409020546001600160a01b0316610d315760405162461bcd60e51b815260206004820152601860248201527f4552433732313a20696e76616c696420746f6b656e2049440000000000000000604482015260640161090d565b600081815260696020526040902080546001600160a01b0319166001600160a01b038416908117909155819061164382611094565b6001600160a01b03167f8c5be1e5ebec7d5bd14f71427d1e84f3dd0314c0f7b2291e5b200ac8c7c3b92560405160405180910390a45050565b610d31813361207e565b6000828152606760205260409020546001600160a01b03166117105760405162461bcd60e51b815260206004820152602e60248201527f45524337323155524953746f726167653a2055524920736574206f66206e6f6e60448201527f6578697374656e7420746f6b656e000000000000000000000000000000000000606482015260840161090d565b600082815260c96020526040902061172882826134ee565b506040518281527ff8e1a15aba9398e019f0b49df1a4fde98ee17ae345cb5f6b5e2c27f5033e8ce79060200160405180910390a15050565b60008061176c83611094565b9050806001600160a01b0316846001600160a01b031614806117b357506001600160a01b038082166000908152606a602090815260408083209388168352929052205460ff165b806117d75750836001600160a01b03166117cc84610856565b6001600160a01b0316145b949350505050565b826001600160a01b03166117f282611094565b6001600160a01b0316146118565760405162461bcd60e51b815260206004820152602560248201527f4552433732313a207472616e736665722066726f6d20696e636f72726563742060448201526437bbb732b960d91b606482015260840161090d565b6001600160a01b0382166118d15760405162461bcd60e51b8152602060048201526024808201527f4552433732313a207472616e7366657220746f20746865207a65726f2061646460448201527f7265737300000000000000000000000000000000000000000000000000000000606482015260840161090d565b6118de83838360016120f4565b826001600160a01b03166118f182611094565b6001600160a01b0316146119555760405162461bcd60e51b815260206004820152602560248201527f4552433732313a207472616e736665722066726f6d20696e636f72726563742060448201526437bbb732b960d91b606482015260840161090d565b600081815260696020908152604080832080546001600160a01b03199081169091556001600160a01b0387811680865260688552838620805460001901905590871680865283862080546001019055868652606790945282852080549092168417909155905184937fddf252ad1be2c89b69c2b068fc378daa952ba7f163c4a11628f55a4df523b3ef91a4505050565b600082815261012d602090815260408083206001600160a01b038516845290915290205460ff16610bb557600082815261012d602090815260408083206001600160a01b03851684529091529020805460ff19166001179055611a453390565b6001600160a01b0316816001600160a01b0316837f2f8788117e7eff1d82e926ec794901d17c78024a50270940304540a733656f0d60405160405180910390a45050565b600082815261012d602090815260408083206001600160a01b038516845290915290205460ff1615610bb557600082815261012d602090815260408083206001600160a01b0385168085529252808320805460ff1916905551339285917ff6391f5c32d9c69d2a47ea670b442974b53935d1edc7fd64eb21e047a839171b9190a45050565b7f189ab7a9244df0848122154315af71fe140f3db0fe014031783b0946b8c9d2e3610bb58161167c565b7f4910fdfa16fed3260ed0e7147f7cc6da11a60208b5b9406d12a635614ffd91435460ff1615611b6b576109ae83612100565b826001600160a01b03166352d1902d6040518163ffffffff1660e01b8152600401602060405180830381865afa925050508015611bc5575060408051601f3d908101601f19168201909252611bc2918101906135ae565b60015b611c375760405162461bcd60e51b815260206004820152602e60248201527f45524331393637557067726164653a206e657720696d706c656d656e7461746960448201527f6f6e206973206e6f742055555053000000000000000000000000000000000000606482015260840161090d565b7f360894a13ba1a3210667c828492db98dca3e2076cc3735a920a3ca505d382bbc8114611ccc5760405162461bcd60e51b815260206004820152602960248201527f45524331393637557067726164653a20756e737570706f727465642070726f7860448201527f6961626c65555549440000000000000000000000000000000000000000000000606482015260840161090d565b506109ae8383836121be565b610d31816121e3565b600054610100900460ff16611d4c5760405162461bcd60e51b815260206004820152602b60248201527f496e697469616c697a61626c653a20636f6e7472616374206973206e6f74206960448201526a6e697469616c697a696e6760a81b606482015260840161090d565b610bb58282612223565b600054610100900460ff16611dc15760405162461bcd60e51b815260206004820152602b60248201527f496e697469616c697a61626c653a20636f6e7472616374206973206e6f74206960448201526a6e697469616c697a696e6760a81b606482015260840161090d565b565b816001600160a01b0316836001600160a01b031603611e245760405162461bcd60e51b815260206004820152601960248201527f4552433732313a20617070726f766520746f2063616c6c657200000000000000604482015260640161090d565b6001600160a01b038381166000818152606a6020908152604080832094871680845294825291829020805460ff191686151590811790915591519182527f17307eab39ab6107e8899845ad3d59bd9653f200f220920489ca2b5937696c31910160405180910390a3505050565b611e9c8484846117df565b611ea8848484846122a7565b61142f5760405162461bcd60e51b815260206004820152603260248201527f4552433732313a207472616e7366657220746f206e6f6e20455243373231526560448201527131b2b4bb32b91034b6b83632b6b2b73a32b960711b606482015260840161090d565b6060611f1a826115aa565b600082815260c9602052604081208054611f3390613421565b80601f0160208091040260200160405190810160405280929190818152602001828054611f5f90613421565b8015611fac5780601f10611f8157610100808354040283529160200191611fac565b820191906000526020600020905b815481529060010190602001808311611f8f57829003601f168201915b505050505090506000611fd9604080518082019091526007815266697066733a2f2f60c81b602082015290565b90508051600003611feb575092915050565b81511561201d5780826040516020016120059291906135c7565b60405160208183030381529060405292505050919050565b6117d7846123f3565b610bb5828260405180602001604052806000815250612476565b60006001600160e01b031982167f490649060000000000000000000000000000000000000000000000000000000014806107be57506107be826124f4565b600082815261012d602090815260408083206001600160a01b038516845290915290205460ff16610bb5576120b281612532565b6120bd836020612544565b6040516020016120ce9291906135f6565b60408051601f198184030181529082905262461bcd60e51b825261090d91600401613096565b61142f84848484612725565b6001600160a01b0381163b61217d5760405162461bcd60e51b815260206004820152602d60248201527f455243313936373a206e657720696d706c656d656e746174696f6e206973206e60448201527f6f74206120636f6e747261637400000000000000000000000000000000000000606482015260840161090d565b7f360894a13ba1a3210667c828492db98dca3e2076cc3735a920a3ca505d382bbc80546001600160a01b0319166001600160a01b0392909216919091179055565b6121c783612861565b6000825111806121d45750805b156109ae5761142f83836128a1565b6121ec816128c6565b600081815260c960205260409020805461220590613421565b159050610d3157600081815260c960205260408120610d3191612fc5565b600054610100900460ff1661228e5760405162461bcd60e51b815260206004820152602b60248201527f496e697469616c697a61626c653a20636f6e7472616374206973206e6f74206960448201526a6e697469616c697a696e6760a81b606482015260840161090d565b606561229a83826134ee565b5060666109ae82826134ee565b60006001600160a01b0384163b156123e857604051630a85bd0160e11b81526001600160a01b0385169063150b7a02906122eb903390899088908890600401613677565b6020604051808303816000875af1925050508015612326575060408051601f3d908101601f19168201909252612323918101906136a9565b60015b6123ce573d808015612354576040519150601f19603f3d011682016040523d82523d6000602084013e612359565b606091505b5080516000036123c65760405162461bcd60e51b815260206004820152603260248201527f4552433732313a207472616e7366657220746f206e6f6e20455243373231526560448201527131b2b4bb32b91034b6b83632b6b2b73a32b960711b606482015260840161090d565b805181602001fd5b6001600160e01b031916630a85bd0160e11b1490506117d7565b506001949350505050565b60606123fe826115aa565b6000612424604080518082019091526007815266697066733a2f2f60c81b602082015290565b90506000815111612444576040518060200160405280600081525061246f565b8061244e84612969565b60405160200161245f9291906135c7565b6040516020818303038152906040525b9392505050565b6124808383612a09565b61248d60008484846122a7565b6109ae5760405162461bcd60e51b815260206004820152603260248201527f4552433732313a207472616e7366657220746f206e6f6e20455243373231526560448201527131b2b4bb32b91034b6b83632b6b2b73a32b960711b606482015260840161090d565b60006001600160e01b031982167f780e9d630000000000000000000000000000000000000000000000000000000014806107be57506107be82612ba2565b60606107be6001600160a01b03831660145b606060006125538360026136c6565b61255e9060026136dd565b67ffffffffffffffff81111561257657612576613108565b6040519080825280601f01601f1916602001820160405280156125a0576020820181803683370190505b5090507f3000000000000000000000000000000000000000000000000000000000000000816000815181106125d7576125d761345b565b60200101906001600160f81b031916908160001a9053507f7800000000000000000000000000000000000000000000000000000000000000816001815181106126225761262261345b565b60200101906001600160f81b031916908160001a90535060006126468460026136c6565b6126519060016136dd565b90505b60018111156126d6577f303132333435363738396162636465660000000000000000000000000000000085600f16601081106126925761269261345b565b1a60f81b8282815181106126a8576126a861345b565b60200101906001600160f81b031916908160001a90535060049490941c936126cf816136f0565b9050612654565b50831561246f5760405162461bcd60e51b815260206004820181905260248201527f537472696e67733a20686578206c656e67746820696e73756666696369656e74604482015260640161090d565b600181111561279c5760405162461bcd60e51b815260206004820152603560248201527f455243373231456e756d657261626c653a20636f6e736563757469766520747260448201527f616e7366657273206e6f7420737570706f727465640000000000000000000000606482015260840161090d565b816001600160a01b0385166127f8576127f381609980546000838152609a60205260408120829055600182018355919091527f72a152ddfb8e864297c917af52ea6c1c68aead0fee1a62673fcc7e0c94979d000155565b61281b565b836001600160a01b0316856001600160a01b03161461281b5761281b8582612c3d565b6001600160a01b0384166128375761283281612cda565b61285a565b846001600160a01b0316846001600160a01b03161461285a5761285a8482612d89565b5050505050565b61286a81612100565b6040516001600160a01b038216907fbc7cd75a20ee27fd9adebab32041f755214dbc6bffa90cc0225b39da2e5c2d3b90600090a250565b606061246f838360405180606001604052806027815260200161374d60279139612dcd565b60006128d182611094565b90506128e18160008460016120f4565b6128ea82611094565b600083815260696020908152604080832080546001600160a01b03199081169091556001600160a01b0385168085526068845282852080546000190190558785526067909352818420805490911690555192935084927fddf252ad1be2c89b69c2b068fc378daa952ba7f163c4a11628f55a4df523b3ef908390a45050565b6060600061297683612e45565b600101905060008167ffffffffffffffff81111561299657612996613108565b6040519080825280601f01601f1916602001820160405280156129c0576020820181803683370190505b5090508181016020015b600019017f3031323334353637383961626364656600000000000000000000000000000000600a86061a8153600a85049450846129ca57509392505050565b6001600160a01b038216612a5f5760405162461bcd60e51b815260206004820181905260248201527f4552433732313a206d696e7420746f20746865207a65726f2061646472657373604482015260640161090d565b6000818152606760205260409020546001600160a01b031615612ac45760405162461bcd60e51b815260206004820152601c60248201527f4552433732313a20746f6b656e20616c7265616479206d696e74656400000000604482015260640161090d565b612ad26000838360016120f4565b6000818152606760205260409020546001600160a01b031615612b375760405162461bcd60e51b815260206004820152601c60248201527f4552433732313a20746f6b656e20616c7265616479206d696e74656400000000604482015260640161090d565b6001600160a01b038216600081815260686020908152604080832080546001019055848352606790915280822080546001600160a01b0319168417905551839291907fddf252ad1be2c89b69c2b068fc378daa952ba7f163c4a11628f55a4df523b3ef908290a45050565b60006001600160e01b031982167f80ac58cd000000000000000000000000000000000000000000000000000000001480612c0557506001600160e01b031982167f5b5e139f00000000000000000000000000000000000000000000000000000000145b806107be57507f01ffc9a7000000000000000000000000000000000000000000000000000000006001600160e01b03198316146107be565b60006001612c4a846110f9565b612c549190613707565b600083815260986020526040902054909150808214612ca7576001600160a01b03841660009081526097602090815260408083208584528252808320548484528184208190558352609890915290208190555b5060009182526098602090815260408084208490556001600160a01b039094168352609781528383209183525290812055565b609954600090612cec90600190613707565b6000838152609a602052604081205460998054939450909284908110612d1457612d1461345b565b906000526020600020015490508060998381548110612d3557612d3561345b565b6000918252602080832090910192909255828152609a90915260408082208490558582528120556099805480612d6d57612d6d61371a565b6001900381819060005260206000200160009055905550505050565b6000612d94836110f9565b6001600160a01b039093166000908152609760209081526040808320868452825280832085905593825260989052919091209190915550565b6060600080856001600160a01b031685604051612dea9190613730565b600060405180830381855af49150503d8060008114612e25576040519150601f19603f3d011682016040523d82523d6000602084013e612e2a565b606091505b5091509150612e3b86838387612f27565b9695505050505050565b6000807a184f03e93ff9f4daa797ed6e38ed64bf6a1f0100000000000000008310612e8e577a184f03e93ff9f4daa797ed6e38ed64bf6a1f010000000000000000830492506040015b6d04ee2d6d415b85acef81000000008310612eba576d04ee2d6d415b85acef8100000000830492506020015b662386f26fc100008310612ed857662386f26fc10000830492506010015b6305f5e1008310612ef0576305f5e100830492506008015b6127108310612f0457612710830492506004015b60648310612f16576064830492506002015b600a83106107be5760010192915050565b60608315612f96578251600003612f8f576001600160a01b0385163b612f8f5760405162461bcd60e51b815260206004820152601d60248201527f416464726573733a2063616c6c20746f206e6f6e2d636f6e7472616374000000604482015260640161090d565b50816117d7565b6117d78383815115612fab5781518083602001fd5b8060405162461bcd60e51b815260040161090d9190613096565b508054612fd190613421565b6000825580601f10612fe1575050565b601f016020900490600052602060002090810190610d3191905b8082111561300f5760008155600101612ffb565b5090565b6001600160e01b031981168114610d3157600080fd5b60006020828403121561303b57600080fd5b813561246f81613013565b60005b83811015613061578181015183820152602001613049565b50506000910152565b60008151808452613082816020860160208601613046565b601f01601f19169290920160200192915050565b60208152600061246f602083018461306a565b6000602082840312156130bb57600080fd5b5035919050565b80356001600160a01b03811681146130d957600080fd5b919050565b600080604083850312156130f157600080fd5b6130fa836130c2565b946020939093013593505050565b634e487b7160e01b600052604160045260246000fd5b600067ffffffffffffffff8084111561313957613139613108565b604051601f8501601f19908116603f0116810190828211818310171561316157613161613108565b8160405280935085815286868601111561317a57600080fd5b858560208301376000602087830101525050509392505050565b600080604083850312156131a757600080fd5b82359150602083013567ffffffffffffffff8111156131c557600080fd5b8301601f810185136131d657600080fd5b6131e58582356020840161311e565b9150509250929050565b60008060006060848603121561320457600080fd5b61320d846130c2565b925061321b602085016130c2565b9150604084013590509250925092565b6000806040838503121561323e57600080fd5b8235915061324e602084016130c2565b90509250929050565b60006020828403121561326957600080fd5b61246f826130c2565b600082601f83011261328357600080fd5b61246f8383356020850161311e565b600080604083850312156132a557600080fd5b6132ae836130c2565b9150602083013567ffffffffffffffff8111156132ca57600080fd5b6131e585828601613272565b600080604083850312156132e957600080fd5b6132f2836130c2565b91506020830135801515811461330757600080fd5b809150509250929050565b6000806000806080858703121561332857600080fd5b613331856130c2565b935061333f602086016130c2565b925060408501359150606085013567ffffffffffffffff81111561336257600080fd5b61336e87828801613272565b91505092959194509250565b6020808252825182820181905260009190848201906040850190845b818110156133b257835183529284019291840191600101613396565b50909695505050505050565b600080604083850312156133d157600080fd5b6133da836130c2565b915061324e602084016130c2565b600080600080608085870312156133fe57600080fd5b613407856130c2565b966020860135965060408601359560600135945092505050565b600181811c9082168061343557607f821691505b60208210810361345557634e487b7160e01b600052602260045260246000fd5b50919050565b634e487b7160e01b600052603260045260246000fd5b634e487b7160e01b600052601160045260246000fd5b60006001820161349957613499613471565b5060010190565b601f8211156109ae57600081815260208120601f850160051c810160208610156134c75750805b601f850160051c820191505b818110156134e6578281556001016134d3565b505050505050565b815167ffffffffffffffff81111561350857613508613108565b61351c816135168454613421565b846134a0565b602080601f83116001811461355157600084156135395750858301515b600019600386901b1c1916600185901b1785556134e6565b600085815260208120601f198616915b8281101561358057888601518255948401946001909101908401613561565b508582101561359e5787850151600019600388901b60f8161c191681555b5050505050600190811b01905550565b6000602082840312156135c057600080fd5b5051919050565b600083516135d9818460208801613046565b8351908301906135ed818360208801613046565b01949350505050565b7f416363657373436f6e74726f6c3a206163636f756e742000000000000000000081526000835161362e816017850160208801613046565b7f206973206d697373696e6720726f6c6520000000000000000000000000000000601791840191820152835161366b816028840160208801613046565b01602801949350505050565b60006001600160a01b03808716835280861660208401525083604083015260806060830152612e3b608083018461306a565b6000602082840312156136bb57600080fd5b815161246f81613013565b80820281158282048414176107be576107be613471565b808201808211156107be576107be613471565b6000816136ff576136ff613471565b506000190190565b818103818111156107be576107be613471565b634e487b7160e01b600052603160045260246000fd5b60008251613742818460208701613046565b919091019291505056fe416464726573733a206c6f772d6c6576656c2064656c65676174652063616c6c206661696c6564a26469706673582212200104c6d1974f37fe22270fee9f71a89044c6f808a6992f2520430e78a5e957bc64736f6c63430008110033",
  "linkReferences": {},
  "deployedLinkReferences": {}
}