{
  "_format": "hh-sol-artifact-1",
  "contractName": "ReverseAuction",
  "sourceName": "contracts/ReverseAuction.sol",
  "abi": [
    {
      "inputs": [],
      "stateMutability": "nonpayable",
      "type": "constructor"
    },
    {
      "anonymous": false,
      "inputs": [
        {
          "indexed": false,
          "internalType": "address",
          "name": "previousAdmin",
          "type": "address"
        },
        {
          "indexed": false,
          "internalType": "address",
          "name": "newAdmin",
          "type": "address"
        }
      ],
      "name": "AdminChanged",
      "type": "event"
    },
    {
      "anonymous": false,
      "inputs": [
        {
          "indexed": true,
          "internalType": "address",
          "name": "beacon",
          "type": "address"
        }
      ],
      "name": "BeaconUpgraded",
      "type": "event"
    },
    {
      "anonymous": false,
      "inputs": [
        {
          "indexed": false,
          "internalType": "address",
          "name": "owner",
          "type": "address"
        },
        {
          "indexed": false,
          "internalType": "uint256",
          "name": "modifierId",
          "type": "uint256"
        },
        {
          "indexed": false,
          "internalType": "uint256",
          "name": "typeMod",
          "type": "uint256"
        },
        {
          "indexed": false,
          "internalType": "uint256",
          "name": "value",
          "type": "uint256"
        }
      ],
      "name": "BuyModifier",
      "type": "event"
    },
    {
      "anonymous": false,
      "inputs": [
        {
          "indexed": false,
          "internalType": "address",
          "name": "winner",
          "type": "address"
        },
        {
          "indexed": false,
          "internalType": "uint256",
          "name": "auctionId",
          "type": "uint256"
        },
        {
          "indexed": false,
          "internalType": "uint256",
          "name": "number",
          "type": "uint256"
        }
      ],
      "name": "ClaimPrize",
      "type": "event"
    },
    {
      "anonymous": false,
      "inputs": [
        {
          "indexed": false,
          "internalType": "address",
          "name": "bidder",
          "type": "address"
        },
        {
          "indexed": false,
          "internalType": "uint256",
          "name": "auctionId",
          "type": "uint256"
        },
        {
          "indexed": false,
          "internalType": "uint256",
          "name": "ticketId",
          "type": "uint256"
        }
      ],
      "name": "Commit",
      "type": "event"
    },
    {
      "anonymous": false,
      "inputs": [
        {
          "indexed": false,
          "internalType": "address",
          "name": "auctioneer",
          "type": "address"
        },
        {
          "indexed": false,
          "internalType": "uint256",
          "name": "auctionId",
          "type": "uint256"
        }
      ],
      "name": "CreateAuction",
      "type": "event"
    },
    {
      "anonymous": false,
      "inputs": [
        {
          "indexed": false,
          "internalType": "uint8",
          "name": "version",
          "type": "uint8"
        }
      ],
      "name": "Initialized",
      "type": "event"
    },
    {
      "anonymous": false,
      "inputs": [
        {
          "indexed": false,
          "internalType": "address",
          "name": "bidder",
          "type": "address"
        },
        {
          "indexed": false,
          "internalType": "uint256",
          "name": "auctionId",
          "type": "uint256"
        },
        {
          "indexed": false,
          "internalType": "uint256",
          "name": "number",
          "type": "uint256"
        }
      ],
      "name": "Reveal",
      "type": "event"
    },
    {
      "anonymous": false,
      "inputs": [
        {
          "indexed": true,
          "internalType": "bytes32",
          "name": "role",
          "type": "bytes32"
        },
        {
          "indexed": true,
          "internalType": "bytes32",
          "name": "previousAdminRole",
          "type": "bytes32"
        },
        {
          "indexed": true,
          "internalType": "bytes32",
          "name": "newAdminRole",
          "type": "bytes32"
        }
      ],
      "name": "RoleAdminChanged",
      "type": "event"
    },
    {
      "anonymous": false,
      "inputs": [
        {
          "indexed": true,
          "internalType": "bytes32",
          "name": "role",
          "type": "bytes32"
        },
        {
          "indexed": true,
          "internalType": "address",
          "name": "account",
          "type": "address"
        },
        {
          "indexed": true,
          "internalType": "address",
          "name": "sender",
          "type": "address"
        }
      ],
      "name": "RoleGranted",
      "type": "event"
    },
    {
      "anonymous": false,
      "inputs": [
        {
          "indexed": true,
          "internalType": "bytes32",
          "name": "role",
          "type": "bytes32"
        },
        {
          "indexed": true,
          "internalType": "address",
          "name": "account",
          "type": "address"
        },
        {
          "indexed": true,
          "internalType": "address",
          "name": "sender",
          "type": "address"
        }
      ],
      "name": "RoleRevoked",
      "type": "event"
    },
    {
      "anonymous": false,
      "inputs": [
        {
          "indexed": true,
          "internalType": "address",
          "name": "implementation",
          "type": "address"
        }
      ],
      "name": "Upgraded",
      "type": "event"
    },
    {
      "inputs": [],
      "name": "ADD_DIGIT_MODIFIER",
      "outputs": [
        {
          "internalType": "uint256",
          "name": "",
          "type": "uint256"
        }
      ],
      "stateMutability": "view",
      "type": "function"
    },
    {
      "inputs": [],
      "name": "ADD_MODIFIER",
      "outputs": [
        {
          "internalType": "uint256",
          "name": "",
          "type": "uint256"
        }
      ],
      "stateMutability": "view",
      "type": "function"
    },
    {
      "inputs": [],
      "name": "DEFAULT_ADMIN_ROLE",
      "outputs": [
        {
          "internalType": "bytes32",
          "name": "",
          "type": "bytes32"
        }
      ],
      "stateMutability": "view",
      "type": "function"
    },
    {
      "inputs": [],
      "name": "DIVIDE_MODIFIER",
      "outputs": [
        {
          "internalType": "uint256",
          "name": "",
          "type": "uint256"
        }
      ],
      "stateMutability": "view",
      "type": "function"
    },
    {
      "inputs": [],
      "name": "MODIFIERS_RANDOM_TYPE",
      "outputs": [
        {
          "internalType": "bytes32",
          "name": "",
          "type": "bytes32"
        }
      ],
      "stateMutability": "view",
      "type": "function"
    },
    {
      "inputs": [],
      "name": "MODIFIERS_SELECT_TYPE",
      "outputs": [
        {
          "internalType": "bytes32",
          "name": "",
          "type": "bytes32"
        }
      ],
      "stateMutability": "view",
      "type": "function"
    },
    {
      "inputs": [],
      "name": "MULTIPLY_MODIFIER",
      "outputs": [
        {
          "internalType": "uint256",
          "name": "",
          "type": "uint256"
        }
      ],
      "stateMutability": "view",
      "type": "function"
    },
    {
      "inputs": [],
      "name": "NORMAL_RANDOM_TYPE",
      "outputs": [
        {
          "internalType": "bytes32",
          "name": "",
          "type": "bytes32"
        }
      ],
      "stateMutability": "view",
      "type": "function"
    },
    {
      "inputs": [],
      "name": "NORMAL_SELECT_TYPE",
      "outputs": [
        {
          "internalType": "bytes32",
          "name": "",
          "type": "bytes32"
        }
      ],
      "stateMutability": "view",
      "type": "function"
    },
    {
      "inputs": [],
      "name": "RECORDER_ROLE",
      "outputs": [
        {
          "internalType": "bytes32",
          "name": "",
          "type": "bytes32"
        }
      ],
      "stateMutability": "view",
      "type": "function"
    },
    {
      "inputs": [],
      "name": "SUBTRACT_MODIFIER",
      "outputs": [
        {
          "internalType": "uint256",
          "name": "",
          "type": "uint256"
        }
      ],
      "stateMutability": "view",
      "type": "function"
    },
    {
      "inputs": [],
      "name": "UPGRADER_ROLE",
      "outputs": [
        {
          "internalType": "bytes32",
          "name": "",
          "type": "bytes32"
        }
      ],
      "stateMutability": "view",
      "type": "function"
    },
    {
      "inputs": [
        {
          "internalType": "address",
          "name": "_buyer",
          "type": "address"
        },
        {
          "internalType": "uint256",
          "name": "typeMod",
          "type": "uint256"
        },
        {
          "internalType": "uint256",
          "name": "value",
          "type": "uint256"
        }
      ],
      "name": "buyModifier",
      "outputs": [],
      "stateMutability": "nonpayable",
      "type": "function"
    },
    {
      "inputs": [
        {
          "internalType": "uint256",
          "name": "_auctionId",
          "type": "uint256"
        }
      ],
      "name": "checkWinner",
      "outputs": [
        {
          "internalType": "uint256",
          "name": "winnerNumber",
          "type": "uint256"
        }
      ],
      "stateMutability": "view",
      "type": "function"
    },
    {
      "inputs": [
        {
          "internalType": "uint256",
          "name": "_auctionId",
          "type": "uint256"
        },
        {
          "internalType": "uint256",
          "name": "_tokenId",
          "type": "uint256"
        }
      ],
      "name": "claimAuctionPrize",
      "outputs": [],
      "stateMutability": "nonpayable",
      "type": "function"
    },
    {
      "inputs": [
        {
          "internalType": "uint256",
          "name": "_auctionId",
          "type": "uint256"
        }
      ],
      "name": "claimAuctionProfits",
      "outputs": [],
      "stateMutability": "nonpayable",
      "type": "function"
    },
    {
      "inputs": [],
      "name": "claimFees",
      "outputs": [],
      "stateMutability": "nonpayable",
      "type": "function"
    },
    {
      "inputs": [
        {
          "internalType": "string",
          "name": "_title",
          "type": "string"
        },
        {
          "internalType": "string",
          "name": "_description",
          "type": "string"
        },
        {
          "internalType": "uint256",
          "name": "_prize",
          "type": "uint256"
        },
        {
          "internalType": "uint256",
          "name": "_entryPrice",
          "type": "uint256"
        },
        {
          "internalType": "uint256",
          "name": "_startTime",
          "type": "uint256"
        },
        {
          "internalType": "uint256",
          "name": "_endTimeCommit",
          "type": "uint256"
        },
        {
          "internalType": "uint256",
          "name": "_endTimeModifiers",
          "type": "uint256"
        },
        {
          "internalType": "uint256",
          "name": "_endTimeReveal",
          "type": "uint256"
        },
        {
          "internalType": "bytes32",
          "name": "_typeAuction",
          "type": "bytes32"
        }
      ],
      "name": "createAuction",
      "outputs": [],
      "stateMutability": "nonpayable",
      "type": "function"
    },
    {
      "inputs": [
        {
          "internalType": "uint256",
          "name": "_number",
          "type": "uint256"
        },
        {
          "internalType": "string",
          "name": "_password",
          "type": "string"
        }
      ],
      "name": "createCommitment",
      "outputs": [
        {
          "internalType": "bytes32",
          "name": "",
          "type": "bytes32"
        }
      ],
      "stateMutability": "pure",
      "type": "function"
    },
    {
      "inputs": [
        {
          "internalType": "uint256",
          "name": "_idAuction",
          "type": "uint256"
        }
      ],
      "name": "getAuction",
      "outputs": [
        {
          "components": [
            {
              "internalType": "uint256",
              "name": "id",
              "type": "uint256"
            },
            {
              "internalType": "address",
              "name": "auctioneer",
              "type": "address"
            },
            {
              "internalType": "string",
              "name": "title",
              "type": "string"
            },
            {
              "internalType": "string",
              "name": "description",
              "type": "string"
            },
            {
              "internalType": "uint256",
              "name": "prize",
              "type": "uint256"
            },
            {
              "internalType": "uint256",
              "name": "entryPrice",
              "type": "uint256"
            },
            {
              "internalType": "uint256",
              "name": "startTime",
              "type": "uint256"
            },
            {
              "internalType": "uint256",
              "name": "endTimeCommit",
              "type": "uint256"
            },
            {
              "internalType": "uint256",
              "name": "endTimeModifiers",
              "type": "uint256"
            },
            {
              "internalType": "uint256",
              "name": "endTimeReveal",
              "type": "uint256"
            },
            {
              "internalType": "bytes32",
              "name": "typeA",
              "type": "bytes32"
            },
            {
              "internalType": "uint256",
              "name": "totalBidders",
              "type": "uint256"
            },
            {
              "internalType": "uint256",
              "name": "lowestBid",
              "type": "uint256"
            },
            {
              "internalType": "bool",
              "name": "exists",
              "type": "bool"
            },
            {
              "internalType": "address",
              "name": "winner",
              "type": "address"
            },
            {
              "internalType": "bool",
              "name": "claimed",
              "type": "bool"
            }
          ],
          "internalType": "struct ReverseAuction.AuctionMetadata",
          "name": "",
          "type": "tuple"
        }
      ],
      "stateMutability": "view",
      "type": "function"
    },
    {
      "inputs": [
        {
          "internalType": "uint256",
          "name": "page",
          "type": "uint256"
        },
        {
          "internalType": "uint256",
          "name": "pageSize",
          "type": "uint256"
        }
      ],
      "name": "getAuctionsPage",
      "outputs": [
        {
          "internalType": "uint256[]",
          "name": "",
          "type": "uint256[]"
        },
        {
          "internalType": "uint256",
          "name": "",
          "type": "uint256"
        }
      ],
      "stateMutability": "view",
      "type": "function"
    },
    {
      "inputs": [
        {
          "internalType": "uint256",
          "name": "_auctionId",
          "type": "uint256"
        },
        {
          "internalType": "uint256",
          "name": "_ticketId",
          "type": "uint256"
        }
      ],
      "name": "getCommitInAuction",
      "outputs": [
        {
          "internalType": "bytes32",
          "name": "",
          "type": "bytes32"
        }
      ],
      "stateMutability": "view",
      "type": "function"
    },
    {
      "inputs": [
        {
          "internalType": "uint256",
          "name": "page",
          "type": "uint256"
        },
        {
          "internalType": "uint256",
          "name": "pageSize",
          "type": "uint256"
        }
      ],
      "name": "getMyAuctionsPage",
      "outputs": [
        {
          "internalType": "uint256[]",
          "name": "",
          "type": "uint256[]"
        },
        {
          "internalType": "uint256",
          "name": "",
          "type": "uint256"
        }
      ],
      "stateMutability": "view",
      "type": "function"
    },
    {
      "inputs": [
        {
          "internalType": "uint256",
          "name": "_auctionId",
          "type": "uint256"
        }
      ],
      "name": "getMyBidsInAuction",
      "outputs": [
        {
          "internalType": "uint256[]",
          "name": "",
          "type": "uint256[]"
        }
      ],
      "stateMutability": "view",
      "type": "function"
    },
    {
      "inputs": [
        {
          "internalType": "bytes32",
          "name": "role",
          "type": "bytes32"
        }
      ],
      "name": "getRoleAdmin",
      "outputs": [
        {
          "internalType": "bytes32",
          "name": "",
          "type": "bytes32"
        }
      ],
      "stateMutability": "view",
      "type": "function"
    },
    {
      "inputs": [
        {
          "internalType": "bytes32",
          "name": "role",
          "type": "bytes32"
        },
        {
          "internalType": "address",
          "name": "account",
          "type": "address"
        }
      ],
      "name": "grantRole",
      "outputs": [],
      "stateMutability": "nonpayable",
      "type": "function"
    },
    {
      "inputs": [
        {
          "internalType": "bytes32",
          "name": "role",
          "type": "bytes32"
        },
        {
          "internalType": "address",
          "name": "account",
          "type": "address"
        }
      ],
      "name": "hasRole",
      "outputs": [
        {
          "internalType": "bool",
          "name": "",
          "type": "bool"
        }
      ],
      "stateMutability": "view",
      "type": "function"
    },
    {
      "inputs": [],
      "name": "initialize",
      "outputs": [],
      "stateMutability": "nonpayable",
      "type": "function"
    },
    {
      "inputs": [],
      "name": "modifierCost",
      "outputs": [
        {
          "internalType": "uint256",
          "name": "",
          "type": "uint256"
        }
      ],
      "stateMutability": "view",
      "type": "function"
    },
    {
      "inputs": [
        {
          "internalType": "uint256",
          "name": "",
          "type": "uint256"
        }
      ],
      "name": "newAuctions",
      "outputs": [
        {
          "internalType": "uint256",
          "name": "",
          "type": "uint256"
        }
      ],
      "stateMutability": "view",
      "type": "function"
    },
    {
      "inputs": [
        {
          "internalType": "bytes32",
          "name": "_commit",
          "type": "bytes32"
        },
        {
          "internalType": "uint256",
          "name": "_auctionId",
          "type": "uint256"
        },
        {
          "internalType": "address",
          "name": "_participant",
          "type": "address"
        }
      ],
      "name": "participateRandomAuction",
      "outputs": [],
      "stateMutability": "nonpayable",
      "type": "function"
    },
    {
      "inputs": [
        {
          "internalType": "bytes32",
          "name": "_commit",
          "type": "bytes32"
        },
        {
          "internalType": "uint256",
          "name": "_auctionId",
          "type": "uint256"
        }
      ],
      "name": "participateSelectAuction",
      "outputs": [],
      "stateMutability": "nonpayable",
      "type": "function"
    },
    {
      "inputs": [],
      "name": "proxiableUUID",
      "outputs": [
        {
          "internalType": "bytes32",
          "name": "",
          "type": "bytes32"
        }
      ],
      "stateMutability": "view",
      "type": "function"
    },
    {
      "inputs": [
        {
          "internalType": "bytes32",
          "name": "role",
          "type": "bytes32"
        },
        {
          "internalType": "address",
          "name": "account",
          "type": "address"
        }
      ],
      "name": "renounceRole",
      "outputs": [],
      "stateMutability": "nonpayable",
      "type": "function"
    },
    {
      "inputs": [
        {
          "internalType": "uint256",
          "name": "_auctionId",
          "type": "uint256"
        },
        {
          "internalType": "uint256",
          "name": "_tokenId",
          "type": "uint256"
        },
        {
          "internalType": "uint256",
          "name": "_number",
          "type": "uint256"
        },
        {
          "internalType": "string",
          "name": "_password",
          "type": "string"
        }
      ],
      "name": "revealAuction",
      "outputs": [],
      "stateMutability": "nonpayable",
      "type": "function"
    },
    {
      "inputs": [
        {
          "internalType": "bytes32",
          "name": "role",
          "type": "bytes32"
        },
        {
          "internalType": "address",
          "name": "account",
          "type": "address"
        }
      ],
      "name": "revokeRole",
      "outputs": [],
      "stateMutability": "nonpayable",
      "type": "function"
    },
    {
      "inputs": [
        {
          "internalType": "uint256",
          "name": "_percent",
          "type": "uint256"
        }
      ],
      "name": "setFeePercent",
      "outputs": [],
      "stateMutability": "nonpayable",
      "type": "function"
    },
    {
      "inputs": [
        {
          "internalType": "address",
          "name": "_nftAddress",
          "type": "address"
        }
      ],
      "name": "setModifierNFT",
      "outputs": [],
      "stateMutability": "nonpayable",
      "type": "function"
    },
    {
      "inputs": [
        {
          "internalType": "address",
          "name": "_nftAddress",
          "type": "address"
        }
      ],
      "name": "setTicketNFT",
      "outputs": [],
      "stateMutability": "nonpayable",
      "type": "function"
    },
    {
      "inputs": [
        {
          "internalType": "address",
          "name": "_usdcAddress",
          "type": "address"
        }
      ],
      "name": "setUSDCCoin",
      "outputs": [],
      "stateMutability": "nonpayable",
      "type": "function"
    },
    {
      "inputs": [
        {
          "internalType": "bytes4",
          "name": "interfaceId",
          "type": "bytes4"
        }
      ],
      "name": "supportsInterface",
      "outputs": [
        {
          "internalType": "bool",
          "name": "",
          "type": "bool"
        }
      ],
      "stateMutability": "view",
      "type": "function"
    },
    {
      "inputs": [
        {
          "internalType": "uint256",
          "name": "",
          "type": "uint256"
        }
      ],
      "name": "ticketToNumber",
      "outputs": [
        {
          "internalType": "uint256",
          "name": "",
          "type": "uint256"
        }
      ],
      "stateMutability": "view",
      "type": "function"
    },
    {
      "inputs": [],
      "name": "totalAuctions",
      "outputs": [
        {
          "internalType": "uint256",
          "name": "",
          "type": "uint256"
        }
      ],
      "stateMutability": "view",
      "type": "function"
    },
    {
      "inputs": [],
      "name": "totalModifiers",
      "outputs": [
        {
          "internalType": "uint256",
          "name": "",
          "type": "uint256"
        }
      ],
      "stateMutability": "view",
      "type": "function"
    },
    {
      "inputs": [],
      "name": "totalTickets",
      "outputs": [
        {
          "internalType": "uint256",
          "name": "",
          "type": "uint256"
        }
      ],
      "stateMutability": "view",
      "type": "function"
    },
    {
      "inputs": [
        {
          "internalType": "address",
          "name": "newImplementation",
          "type": "address"
        }
      ],
      "name": "upgradeTo",
      "outputs": [],
      "stateMutability": "nonpayable",
      "type": "function"
    },
    {
      "inputs": [
        {
          "internalType": "address",
          "name": "newImplementation",
          "type": "address"
        },
        {
          "internalType": "bytes",
          "name": "data",
          "type": "bytes"
        }
      ],
      "name": "upgradeToAndCall",
      "outputs": [],
      "stateMutability": "payable",
      "type": "function"
    },
    {
      "inputs": [
        {
          "internalType": "uint256",
          "name": "_auctionId",
          "type": "uint256"
        },
        {
          "internalType": "uint256",
          "name": "_modifierId",
          "type": "uint256"
        },
        {
          "internalType": "uint256",
          "name": "_ticketId",
          "type": "uint256"
        }
      ],
      "name": "useModifier",
      "outputs": [],
      "stateMutability": "nonpayable",
      "type": "function"
    }
  ],
  "bytecode": "0x60a0604052306080523480156200001557600080fd5b506200002062000026565b620000e7565b600054610100900460ff1615620000935760405162461bcd60e51b815260206004820152602760248201527f496e697469616c697a61626c653a20636f6e747261637420697320696e697469604482015266616c697a696e6760c81b606482015260840160405180910390fd5b60005460ff90811614620000e5576000805460ff191660ff9081179091556040519081527f7f26b83ff96e1f2b6a682f133852f6798a09c465da95921460cefb38474024989060200160405180910390a15b565b6080516154d96200011f60003960008181611067015281816110ec015281816113b001528181611435015261151b01526154d96000f3fe6080604052600436106103135760003560e01c80637ce3489b1161019a578063b555adb9116100e1578063d5c3831c1161008a578063ee3e0ed011610064578063ee3e0ed014610920578063f72c0d8b14610940578063ff7deedc1461097457600080fd5b8063d5c3831c146108bc578063dd11247e146108e9578063dded0d7d1461090057600080fd5b8063cf6c9c2e116100bb578063cf6c9c2e14610853578063d294f09314610887578063d547741f1461089c57600080fd5b8063b555adb9146107ca578063bea86581146107ff578063c8729fc21461083357600080fd5b806396133d1a11610143578063a14151591161011d578063a1415159146107aa578063a217fddf146107ca578063a5f13df2146107df57600080fd5b806396133d1a146107415780639842202c146107615780639962e0601461077657600080fd5b8063901be01011610174578063901be010146106c6578063904475d9146106e657806391d14854146106fb57600080fd5b80637ce3489b146106715780638129fc1c1461069157806384ac02d2146106a657600080fd5b806337a99a2a1161025e57806361bc1b8f116102075780636ec58c6e116101e15780636ec58c6e1461060f578063746da04f1461062f57806378bd79351461064457600080fd5b806361bc1b8f1461057f5780636ade389b146105bb5780636b7a2c52146105db57600080fd5b806352d1902d1161023857806352d1902d14610533578063548ac9081461054857806355d3ec5c1461056857600080fd5b806337a99a2a146104eb5780633c1d6822146105005780634f1ef2861461052057600080fd5b806318854939116102c05780632f2ff15d1161029a5780632f2ff15d1461048b57806336568abe146104ab5780633659cfe6146104cb57600080fd5b80631885493914610419578063248a9ca31461043957806327293d4f1461046957600080fd5b806315331421116102f157806315331421146103b757806316002f4a146103ce57806317a97471146103e557600080fd5b806301ffc9a71461031857806307efffa51461034d578063145b491d14610389575b600080fd5b34801561032457600080fd5b50610338610333366004614b83565b610994565b60405190151581526020015b60405180910390f35b34801561035957600080fd5b5061037b610368366004614bc5565b6101036020526000908152604090205481565b604051908152602001610344565b34801561039557600080fd5b506103a96103a4366004614bde565b610a2d565b604051610344929190614c3b565b3480156103c357600080fd5b5061037b6101095481565b3480156103da57600080fd5b5061037b6101065481565b3480156103f157600080fd5b5061037b7f32f234b28b6ba9bafe6734735873e932a8c20b5d0d4250a571126fe74392b28381565b34801561042557600080fd5b5061037b610434366004614bc5565b610c3c565b34801561044557600080fd5b5061037b610454366004614bc5565b60009081526065602052604090206001015490565b34801561047557600080fd5b50610489610484366004614bc5565b610c86565b005b34801561049757600080fd5b506104896104a6366004614c72565b610fa7565b3480156104b757600080fd5b506104896104c6366004614c72565b610fd1565b3480156104d757600080fd5b506104896104e6366004614ca2565b61105d565b3480156104f757600080fd5b5061037b600181565b34801561050c57600080fd5b506103a961051b366004614bde565b6111d8565b61048961052e366004614d4b565b6113a6565b34801561053f57600080fd5b5061037b61150e565b34801561055457600080fd5b50610489610563366004614daf565b6115d3565b34801561057457600080fd5b5061037b6101085481565b34801561058b57600080fd5b5061037b61059a366004614bde565b600091825260fe60209081526040808420928452600e909201905290205490565b3480156105c757600080fd5b506104896105d6366004614ca2565b611d04565b3480156105e757600080fd5b5061037b7f5723a65670a12148d43628c4d62724421f151e0228373f849eb2d3eed393b84881565b34801561061b57600080fd5b5061048961062a366004614de8565b611d32565b34801561063b57600080fd5b5061037b600381565b34801561065057600080fd5b5061066461065f366004614bc5565b612005565b6040516103449190614e6d565b34801561067d57600080fd5b5061048961068c366004614bc5565b612324565b34801561069d57600080fd5b506104896123ad565b3480156106b257600080fd5b506104896106c1366004614fa8565b612517565b3480156106d257600080fd5b506104896106e1366004614bde565b6129da565b3480156106f257600080fd5b5061037b600481565b34801561070757600080fd5b50610338610716366004614c72565b60009182526065602090815260408084206001600160a01b0393909316845291905290205460ff1690565b34801561074d57600080fd5b5061048961075c36600461504b565b612fcf565b34801561076d57600080fd5b5061037b600281565b34801561078257600080fd5b5061037b7f9366691a988c4594e6375596ae89686ad138df33db1114c272fdd500d3adadc081565b3480156107b657600080fd5b506104896107c5366004614bde565b6134af565b3480156107d657600080fd5b5061037b600081565b3480156107eb57600080fd5b5061037b6107fa366004614bc5565b6139d2565b34801561080b57600080fd5b5061037b7ff996da754c790e95d5c7ca3330cfcad529487fe9d1d8edb7afc65076fdf9adb481565b34801561083f57600080fd5b5061037b61084e3660046150a5565b6139f4565b34801561085f57600080fd5b5061037b7f85f490f4ea77165437a005a89edfdc318c22013ec5f116295ddf0ffcc86cd98b81565b34801561089357600080fd5b50610489613a27565b3480156108a857600080fd5b506104896108b7366004614c72565b613aac565b3480156108c857600080fd5b506108dc6108d7366004614bc5565b613ad1565b60405161034491906150e2565b3480156108f557600080fd5b5061037b6101075481565b34801561090c57600080fd5b5061048961091b366004614ca2565b613b40565b34801561092c57600080fd5b5061048961093b3660046150f5565b613b6e565b34801561094c57600080fd5b5061037b7f189ab7a9244df0848122154315af71fe140f3db0fe014031783b0946b8c9d2e381565b34801561098057600080fd5b5061048961098f366004614ca2565b6140af565b60007fffffffff0000000000000000000000000000000000000000000000000000000082167f7965db0b000000000000000000000000000000000000000000000000000000001480610a2757507f01ffc9a7000000000000000000000000000000000000000000000000000000007fffffffff000000000000000000000000000000000000000000000000000000008316145b92915050565b60606000808311610a995760405162461bcd60e51b815260206004820152602b60248201527f526576657273652041756374696f6e3a20506167652073697a65206d7573742060448201526a626520706f73697469766560a81b60648201526084015b60405180910390fd5b831580610abe575033600090815260ff6020526040902054610abb8486615137565b11155b610b0a5760405162461bcd60e51b815260206004820152601e60248201527f526576657273652041756374696f6e3a204f7574206f6620626f756e647300006044820152606401610a90565b33600090815260ff6020526040902054839081610b2887600161514e565b610b329190615137565b1115610b5f57610b428486615137565b33600090815260ff6020526040902054610b5c9190615161565b90505b60008167ffffffffffffffff811115610b7a57610b7a614cbf565b604051908082528060200260200182016040528015610ba3578160200160208202803683370190505b50905060005b82811015610c1f5733600090815260ff6020526040902081610bcb888a615137565b610bd5919061514e565b81548110610be557610be5615174565b9060005260206000200154828281518110610c0257610c02615174565b602090810291909101015280610c178161518a565b915050610ba9565b5033600090815260ff602052604090205490969095509350505050565b600081815260fe60205260408120815b60c8811015610c7f576000818152601083016020526040902054600114610c7f5780610c778161518a565b915050610c4c565b9392505050565b600081815260fe60205260409020600d81015482919060ff16610d0a5760405162461bcd60e51b815260206004820152603660248201527f526576657273652041756374696f6e3a205468652073656c656374656420417560448201527518dd1a5bdb881a5908191bd95cdb89dd08195e1a5cdd60521b6064820152608401610a90565b600083815260fe6020526040902060078101544211610d915760405162461bcd60e51b815260206004820152603a60248201527f526576657273652041756374696f6e3a2050726f666974732063616e206f6e6c60448201527f7920626520636c61696d656420616674657220636f6d6d6974730000000000006064820152608401610a90565b60018101546001600160a01b03163314610e135760405162461bcd60e51b815260206004820152602b60248201527f526576657273652041756374696f6e3a20596f7520617265206e6f742074686560448201527f2061756374696f6e6565720000000000000000000000000000000000000000006064820152608401610a90565b336000818152610101602090815260408083208884528083528184205494845260ff90925282208054919291610e4b90600190615161565b81548110610e5b57610e5b615174565b6000918252602080832090910154835282810193909352604091820181209390935533835260ff90915290208054610e9590600190615161565b81548110610ea557610ea5615174565b600091825260208083209091015433835260ff8252604080842061010184528185208986529093529092205481548110610ee157610ee1615174565b600091825260208083209091019290925533815260ff90915260409020805480610f0d57610f0d6151a3565b60008281526020812060001990830181019190915501905560fb54601482015460405163a9059cbb60e01b815233600482015260248101919091526001600160a01b039091169063a9059cbb906044016020604051808303816000875af1158015610f7c573d6000803e3d6000fd5b505050506040513d601f19601f82011682018060405250810190610fa091906151b9565b5050505050565b600082815260656020526040902060010154610fc2816140dd565b610fcc83836140e7565b505050565b6001600160a01b038116331461104f5760405162461bcd60e51b815260206004820152602f60248201527f416363657373436f6e74726f6c3a2063616e206f6e6c792072656e6f756e636560448201527f20726f6c657320666f722073656c6600000000000000000000000000000000006064820152608401610a90565b6110598282614189565b5050565b6001600160a01b037f00000000000000000000000000000000000000000000000000000000000000001630036110ea5760405162461bcd60e51b815260206004820152602c60248201527f46756e6374696f6e206d7573742062652063616c6c6564207468726f7567682060448201526b19195b1959d85d1958d85b1b60a21b6064820152608401610a90565b7f00000000000000000000000000000000000000000000000000000000000000006001600160a01b03166111457f360894a13ba1a3210667c828492db98dca3e2076cc3735a920a3ca505d382bbc546001600160a01b031690565b6001600160a01b0316146111b05760405162461bcd60e51b815260206004820152602c60248201527f46756e6374696f6e206d7573742062652063616c6c6564207468726f7567682060448201526b6163746976652070726f787960a01b6064820152608401610a90565b6111b98161420c565b604080516000808252602082019092526111d591839190614236565b50565b6060600080831161123f5760405162461bcd60e51b815260206004820152602b60248201527f526576657273652041756374696f6e3a20506167652073697a65206d7573742060448201526a626520706f73697469766560a81b6064820152608401610a90565b8315806112585750610104546112558486615137565b11155b6112a45760405162461bcd60e51b815260206004820152601e60248201527f526576657273652041756374696f6e3a204f7574206f6620626f756e647300006044820152606401610a90565b610104548390816112b687600161514e565b6112c09190615137565b11156112e1576112d08486615137565b610104546112de9190615161565b90505b60008167ffffffffffffffff8111156112fc576112fc614cbf565b604051908082528060200260200182016040528015611325578160200160208202803683370190505b50905060005b828110156113955761010481611341888a615137565b61134b919061514e565b8154811061135b5761135b615174565b906000526020600020015482828151811061137857611378615174565b60209081029190910101528061138d8161518a565b91505061132b565b506101045490969095509350505050565b6001600160a01b037f00000000000000000000000000000000000000000000000000000000000000001630036114335760405162461bcd60e51b815260206004820152602c60248201527f46756e6374696f6e206d7573742062652063616c6c6564207468726f7567682060448201526b19195b1959d85d1958d85b1b60a21b6064820152608401610a90565b7f00000000000000000000000000000000000000000000000000000000000000006001600160a01b031661148e7f360894a13ba1a3210667c828492db98dca3e2076cc3735a920a3ca505d382bbc546001600160a01b031690565b6001600160a01b0316146114f95760405162461bcd60e51b815260206004820152602c60248201527f46756e6374696f6e206d7573742062652063616c6c6564207468726f7567682060448201526b6163746976652070726f787960a01b6064820152608401610a90565b6115028261420c565b61105982826001614236565b6000306001600160a01b037f000000000000000000000000000000000000000000000000000000000000000016146115ae5760405162461bcd60e51b815260206004820152603860248201527f555550535570677261646561626c653a206d757374206e6f742062652063616c60448201527f6c6564207468726f7567682064656c656761746563616c6c00000000000000006064820152608401610a90565b507f360894a13ba1a3210667c828492db98dca3e2076cc3735a920a3ca505d382bbc90565b600082815260fe60205260409020600d81015483919060ff166116575760405162461bcd60e51b815260206004820152603660248201527f526576657273652041756374696f6e3a205468652073656c656374656420417560448201527518dd1a5bdb881a5908191bd95cdb89dd08195e1a5cdd60521b6064820152608401610a90565b7ff996da754c790e95d5c7ca3330cfcad529487fe9d1d8edb7afc65076fdf9adb4611681816140dd565b600085815260fe60205260409020600a8101547f9366691a988c4594e6375596ae89686ad138df33db1114c272fdd500d3adadc014806116e457507f32f234b28b6ba9bafe6734735873e932a8c20b5d0d4250a571126fe74392b28381600a0154145b6117a25760405162461bcd60e51b815260206004820152606360248201527f526576657273652041756374696f6e3a20546869732061756374696f6e20697360448201527f206f662061206e6f726d616c20747970652c20736f20796f752063616e6e6f7460648201527f20636f6d6d69742c20746865207061727469636970616e74206d75737420646f60848201527f206974000000000000000000000000000000000000000000000000000000000060a482015260c401610a90565b8060070154421080156117b9575080600601544210155b61182b5760405162461bcd60e51b815260206004820152603360248201527f526576657273652041756374696f6e3a204974206973206f7574206f6620746960448201527f6d6520746f206d616b65206120636f6d6d6974000000000000000000000000006064820152608401610a90565b600581015460fb54604051636eb1769f60e11b81526001600160a01b0388811660048301523060248301529091169063dd62ed3e90604401602060405180830381865afa158015611880573d6000803e3d6000fd5b505050506040513d601f19601f820116820180604052508101906118a491906151db565b10156119005760405162461bcd60e51b815260206004820152602560248201527f526576657273652041756374696f6e3a204e6f7420656e6f75676820616c6c6f60448201526477616e636560d81b6064820152608401610a90565b600581015460fb546040516370a0823160e01b81526001600160a01b038881166004830152909116906370a0823190602401602060405180830381865afa15801561194f573d6000803e3d6000fd5b505050506040513d601f19601f8201168201806040525081019061197391906151db565b10156119d35760405162461bcd60e51b815260206004820152602960248201527f526576657273652041756374696f6e3a204e6f7420656e6f75676820746f6b656044820152686e2062616c616e636560b81b6064820152608401610a90565b60fb5460058201546040516323b872dd60e01b81526001600160a01b03888116600483015230602483015260448201929092529116906323b872dd906064016020604051808303816000875af1158015611a31573d6000803e3d6000fd5b505050506040513d601f19601f82011682018060405250810190611a5591906151b9565b50606461010a548260050154611a6b9190615137565b611a75919061520a565b61010b6000828254611a87919061514e565b909155505061010a546005820154606491611aa191615137565b611aab919061520a565b8160050154611aba9190615161565b816014016000828254611acd919061514e565b90915550506101078054906000611ae38361518a565b909155505060fc5461010754604051632851206560e21b81526001600160a01b038881166004830152602482019290925291169063a144819490604401600060405180830381600087803b158015611b3a57600080fd5b505af1158015611b4e573d6000803e3d6000fd5b505050508681600e0160006101075481526020019081526020016000208190555080600f016000866001600160a01b03166001600160a01b03168152602001908152602001600020610107549080600181540180825580915050600190039060005260206000200160009091909190915055600181601201600061010754815260200190815260200160002060006101000a81548160ff02191690831515021790555060ff6000866001600160a01b03166001600160a01b03168152602001908152602001600020805490506101016000876001600160a01b03166001600160a01b0316815260200190815260200160002060008881526020019081526020016000208190555060ff6000866001600160a01b03166001600160a01b031681526020019081526020016000208690806001815401808255809150506001900390600052602060002001600090919091909150557f3d5f001e977afcb6eea6a84325bcff0e232f6b3d8453a04a7ea2e5b7792eba0a858761010754604051611cf3939291906001600160a01b039390931683526020830191909152604082015260600190565b60405180910390a150505050505050565b6000611d0f816140dd565b5060fc80546001600160a01b0319166001600160a01b0392909216919091179055565b7ff996da754c790e95d5c7ca3330cfcad529487fe9d1d8edb7afc65076fdf9adb4611d5c816140dd565b6101095460fb54604051636eb1769f60e11b81526001600160a01b0387811660048301523060248301529091169063dd62ed3e90604401602060405180830381865afa158015611db0573d6000803e3d6000fd5b505050506040513d601f19601f82011682018060405250810190611dd491906151db565b1015611e305760405162461bcd60e51b815260206004820152602560248201527f526576657273652041756374696f6e3a204e6f7420656e6f75676820616c6c6f60448201526477616e636560d81b6064820152608401610a90565b6101095460fb546040516370a0823160e01b81526001600160a01b038781166004830152909116906370a0823190602401602060405180830381865afa158015611e7e573d6000803e3d6000fd5b505050506040513d601f19601f82011682018060405250810190611ea291906151db565b1015611f025760405162461bcd60e51b815260206004820152602960248201527f526576657273652041756374696f6e3a204e6f7420656e6f75676820746f6b656044820152686e2062616c616e636560b81b6064820152608401610a90565b6101088054906000611f138361518a565b909155505060fd54610108546040517ffaa07ec10000000000000000000000000000000000000000000000000000000081526001600160a01b0387811660048301526024820192909252604481018690526064810185905291169063faa07ec190608401600060405180830381600087803b158015611f9157600080fd5b505af1158015611fa5573d6000803e3d6000fd5b505061010854604080516001600160a01b038916815260208101929092528101869052606081018590527fe9a9f7b3c8c8bfb5e16a01047a4683126774a2452c1c45683c7edbee7fb156ee9250608001905060405180910390a150505050565b61209e6040518061020001604052806000815260200160006001600160a01b03168152602001606081526020016060815260200160008152602001600081526020016000815260200160008152602001600081526020016000815260200160008019168152602001600081526020016000815260200160001515815260200160006001600160a01b031681526020016000151581525090565b6121376040518061020001604052806000815260200160006001600160a01b03168152602001606081526020016060815260200160008152602001600081526020016000815260200160008152602001600081526020016000815260200160008019168152602001600081526020016000815260200160001515815260200160006001600160a01b031681526020016000151581525090565b600083815260fe6020908152604090912060018101546001600160a01b0316918301919091526013810154600160a81b900460ff1615156101e08301526003810180546121839061521e565b80601f01602080910402602001604051908101604052809291908181526020018280546121af9061521e565b80156121fc5780601f106121d1576101008083540402835291602001916121fc565b820191906000526020600020905b8154815290600101906020018083116121df57829003601f168201915b50505050506060830152600781015460e083015260088101546101008301526009810154610120830152600581015460a0830152600d81015460ff1615156101a083015280548252600c81015461018083015260048101546080830152600681015460c08301526002810180546122729061521e565b80601f016020809104026020016040519081016040528092919081815260200182805461229e9061521e565b80156122eb5780601f106122c0576101008083540402835291602001916122eb565b820191906000526020600020905b8154815290600101906020018083116122ce57829003601f168201915b50505050506040830152600b810154610160830152600a810154610140830152601301546001600160a01b03166101c082015292915050565b600061232f816140dd565b60648211156123a65760405162461bcd60e51b815260206004820152602b60248201527f526576657273652041756374696f6e3a2050657263656e74206f7574206f662060448201527f72616e676520302d3130300000000000000000000000000000000000000000006064820152608401610a90565b5061010a55565b600054610100900460ff16158080156123cd5750600054600160ff909116105b806123e75750303b1580156123e7575060005460ff166001145b6124595760405162461bcd60e51b815260206004820152602e60248201527f496e697469616c697a61626c653a20636f6e747261637420697320616c72656160448201527f647920696e697469616c697a65640000000000000000000000000000000000006064820152608401610a90565b6000805460ff19166001179055801561247c576000805461ff0019166101001790555b6124846143d6565b61248c6143d6565b6124976000336140e7565b6124c17f189ab7a9244df0848122154315af71fe140f3db0fe014031783b0946b8c9d2e3336140e7565b620f424061010955600a61010a5580156111d5576000805461ff0019169055604051600181527f7f26b83ff96e1f2b6a682f133852f6798a09c465da95921460cefb38474024989060200160405180910390a150565b60fb54604051636eb1769f60e11b815233600482015230602482015288916001600160a01b03169063dd62ed3e90604401602060405180830381865afa158015612565573d6000803e3d6000fd5b505050506040513d601f19601f8201168201806040525081019061258991906151db565b10156125e55760405162461bcd60e51b815260206004820152602560248201527f526576657273652041756374696f6e3a204e6f7420656e6f75676820616c6c6f60448201526477616e636560d81b6064820152608401610a90565b60fb546040516370a0823160e01b815233600482015288916001600160a01b0316906370a0823190602401602060405180830381865afa15801561262d573d6000803e3d6000fd5b505050506040513d601f19601f8201168201806040525081019061265191906151db565b10156126b15760405162461bcd60e51b815260206004820152602960248201527f526576657273652041756374696f6e3a204e6f7420656e6f75676820746f6b656044820152686e2062616c616e636560b81b6064820152608401610a90565b7f9366691a988c4594e6375596ae89686ad138df33db1114c272fdd500d3adadc08114806126fe57507f5723a65670a12148d43628c4d62724421f151e0228373f849eb2d3eed393b84881145b8061272857507f32f234b28b6ba9bafe6734735873e932a8c20b5d0d4250a571126fe74392b28381145b8061275257507f85f490f4ea77165437a005a89edfdc318c22013ec5f116295ddf0ffcc86cd98b81145b6127c45760405162461bcd60e51b815260206004820152602c60248201527f526576657273652041756374696f6e3a204e6f7420616c6c6f7765642074797060448201527f65206f662061756374696f6e00000000000000000000000000000000000000006064820152608401610a90565b60fb546040516323b872dd60e01b8152336004820152306024820152604481018990526001600160a01b03909116906323b872dd906064016020604051808303816000875af115801561281b573d6000803e3d6000fd5b505050506040513d601f19601f8201168201806040525081019061283f91906151b9565b5061010680549060006128518361518a565b909155505061010654600081815260fe602052604090209081556001810180546001600160a01b031916331790556002810161288d8b8261529e565b506003810161289c8a8261529e565b50600481018890556005810187905560068101869055600781018590557f9366691a988c4594e6375596ae89686ad138df33db1114c272fdd500d3adadc082148061290657507f5723a65670a12148d43628c4d62724421f151e0228373f849eb2d3eed393b84882145b15612917576008810185905561291f565b600881018490555b60098101839055600a8101829055600d8101805461ffff1916610101179055600019600c820155610104805482546000908152610105602090815260408083208490558554600185018655949092527f4c0be60200faa20559308cb7b5a1bb3255c16cb1cab91f525b5ae7a03d02fabe90920192909255610106548251338152918201527fe123e6f5c4e087122375c561bd96796f57891a6b24f3641052500505ad800eb2910160405180910390a150505050505050505050565b600081815260fe60205260409020600d81015482919060ff16612a5e5760405162461bcd60e51b815260206004820152603660248201527f526576657273652041756374696f6e3a205468652073656c656374656420417560448201527518dd1a5bdb881a5908191bd95cdb89dd08195e1a5cdd60521b6064820152608401610a90565b600083815260fe60205260409020600a8101547f5723a65670a12148d43628c4d62724421f151e0228373f849eb2d3eed393b8481480612ac157507f85f490f4ea77165437a005a89edfdc318c22013ec5f116295ddf0ffcc86cd98b81600a0154145b612b595760405162461bcd60e51b815260206004820152605f60248201527f526576657273652041756374696f6e3a20546869732061756374696f6e20697360448201527f206f6620612072616e646f6d20747970652c20736f20796f752063616e6e6f7460648201527f20636f6d6d69742c207468652072656c61796572206d75737420646f20697400608482015260a401610a90565b806007015442108015612b70575080600601544210155b612be25760405162461bcd60e51b815260206004820152603360248201527f526576657273652041756374696f6e3a204974206973206f7574206f6620746960448201527f6d6520746f206d616b65206120636f6d6d6974000000000000000000000000006064820152608401610a90565b600581015460fb54604051636eb1769f60e11b81523360048201523060248201526001600160a01b039091169063dd62ed3e90604401602060405180830381865afa158015612c35573d6000803e3d6000fd5b505050506040513d601f19601f82011682018060405250810190612c5991906151db565b1015612cb55760405162461bcd60e51b815260206004820152602560248201527f526576657273652041756374696f6e3a204e6f7420656e6f75676820616c6c6f60448201526477616e636560d81b6064820152608401610a90565b600581015460fb546040516370a0823160e01b81523360048201526001600160a01b03909116906370a0823190602401602060405180830381865afa158015612d02573d6000803e3d6000fd5b505050506040513d601f19601f82011682018060405250810190612d2691906151db565b1015612d865760405162461bcd60e51b815260206004820152602960248201527f526576657273652041756374696f6e3a204e6f7420656e6f75676820746f6b656044820152686e2062616c616e636560b81b6064820152608401610a90565b60fb5460058201546040516323b872dd60e01b815233600482015230602482015260448101919091526001600160a01b03909116906323b872dd906064016020604051808303816000875af1158015612de3573d6000803e3d6000fd5b505050506040513d601f19601f82011682018060405250810190612e0791906151b9565b50606461010a548260050154612e1d9190615137565b612e27919061520a565b61010b6000828254612e39919061514e565b909155505061010a546005820154606491612e5391615137565b612e5d919061520a565b8160050154612e6c9190615161565b816014016000828254612e7f919061514e565b90915550506101078054906000612e958361518a565b909155505060fc5461010754604051632851206560e21b815233600482015260248101919091526001600160a01b039091169063a144819490604401600060405180830381600087803b158015612eeb57600080fd5b505af1158015612eff573d6000803e3d6000fd5b505061010780546000908152600e8501602090815260408083208b905533808452600f880183528184208554815460018082018455928752858720015585548552601289018452828520805460ff19168217905581855260ff808552838620805461010187528588208f895287528588208190559186529181018255908552938390209093018a9055925483519283529082018990528183015290517f3d5f001e977afcb6eea6a84325bcff0e232f6b3d8453a04a7ea2e5b7792eba0a9350908190036060019150a15050505050565b600084815260fe60205260409020600d81015485919060ff166130535760405162461bcd60e51b815260206004820152603660248201527f526576657273652041756374696f6e3a205468652073656c656374656420417560448201527518dd1a5bdb881a5908191bd95cdb89dd08195e1a5cdd60521b6064820152608401610a90565b600086815260fe6020526040902060088101544210801590613079575080600901544211155b6130eb5760405162461bcd60e51b815260206004820152602c60248201527f526576657273652041756374696f6e3a204974206973206f7574206f6620746960448201527f6d6520746f2072657665616c00000000000000000000000000000000000000006064820152608401610a90565b60fc546040516331a9108f60e11b81526004810188905233916001600160a01b031690636352211e90602401602060405180830381865afa158015613134573d6000803e3d6000fd5b505050506040513d601f19601f82011682018060405250810190613158919061535e565b6001600160a01b0316146131d6576040805162461bcd60e51b81526020600482015260248101919091527f526576657273652041756374696f6e3a204f6e6c7920746865206f776e65722060448201527f6f6620746865207469636b65742063616e2072657665616c20746865206269646064820152608401610a90565b6000868152600e8201602090815260408083205490519092916131fd91899189910161537b565b6040516020818303038152906040528051906020012090508181146132b05760405162461bcd60e51b815260206004820152604160248201527f526576657273652041756374696f6e3a204e756d62657220616e642f6f72207060448201527f617373776f726420696e636f727265637420666f722074686973207469636b6560648201527f7400000000000000000000000000000000000000000000000000000000000000608482015260a401610a90565b6132bb87600a615137565b96507f32f234b28b6ba9bafe6734735873e932a8c20b5d0d4250a571126fe74392b28383600a0154148061331257507f85f490f4ea77165437a005a89edfdc318c22013ec5f116295ddf0ffcc86cd98b83600a0154145b15613324576133218789614455565b96505b600087815260108401602052604081208054916133408361518a565b9091555050600087815260118401602090815260408083208b90558a83526101039091529020879055600d830154610100900460ff161561346357600d8301805461ff001916905560008981526101056020819052604082205461010480549193916133ae90600190615161565b815481106133be576133be615174565b6000918252602080832090910154835282019290925260400190205561010480546133eb90600190615161565b815481106133fb576133fb615174565b906000526020600020015461010461010560008c8152602001908152602001600020548154811061342e5761342e615174565b60009182526020909120015561010480548061344c5761344c6151a3565b600190038181906000526020600020016000905590555b60408051338152602081018b90529081018890527fbd515cb7fe6810ea1d996c4efb3231c8b281498ca8062a4ec905d41943824bdf9060600160405180910390a1505050505050505050565b600082815260fe60205260409020600d81015483919060ff166135335760405162461bcd60e51b815260206004820152603660248201527f526576657273652041756374696f6e3a205468652073656c656374656420417560448201527518dd1a5bdb881a5908191bd95cdb89dd08195e1a5cdd60521b6064820152608401610a90565b60fc546040516331a9108f60e11b81526004810185905233916001600160a01b031690636352211e90602401602060405180830381865afa15801561357c573d6000803e3d6000fd5b505050506040513d601f19601f820116820180604052508101906135a0919061535e565b6001600160a01b0316146136425760405162461bcd60e51b815260206004820152604160248201527f526576657273652041756374696f6e3a204f6e6c7920746865206f776e65722060448201527f6f6620746865207469636b65742063616e20636c61696d20746865207072697a60648201527f6500000000000000000000000000000000000000000000000000000000000000608482015260a401610a90565b600084815260fe602052604081206013810154909190600160a01b900460ff1661377f5761366f86610c3c565b600c830181905560008181526011840160205260409020549091501561373b5760fc546000828152601184016020526040908190205490516331a9108f60e11b81526001600160a01b0390921691636352211e916136d39160040190815260200190565b602060405180830381865afa1580156136f0573d6000803e3d6000fd5b505050506040513d601f19601f82011682018060405250810190613714919061535e565b6013830180546001600160a01b0319166001600160a01b039290921691909117905561374e565b6013820180546001600160a01b03191690555b6013820180547fffffffffffffffffffffff00ffffffffffffffffffffffffffffffffffffffff16600160a01b1790555b6013820154600160a81b900460ff161580156137a7575060138201546001600160a01b031633145b156138a55760fb5460048381015460405163a9059cbb60e01b8152339281019290925260248201526001600160a01b039091169063a9059cbb906044016020604051808303816000875af1158015613803573d6000803e3d6000fd5b505050506040513d601f19601f8201168201806040525081019061382791906151b9565b50601382018054600160a81b7fffffffffffffffffffff00ffffffffffffffffffffffffffffffffffffffffff821617909155604080516001600160a01b0390921682526020820188905281018290527ff82eb9c13313c771afd88ccbc3101e2a70d6154f72da58177871e41314058cda9060600160405180910390a15b60018201546001600160a01b031633146139ca57336000818152610101602090815260408083208a84528083528184205494845260ff909252822080549192916138f190600190615161565b8154811061390157613901615174565b6000918252602080832090910154835282810193909352604091820181209390935533835260ff9091529020805461393b90600190615161565b8154811061394b5761394b615174565b600091825260208083209091015433835260ff8252604080842061010184528185208b8652909352909220548154811061398757613987615174565b600091825260208083209091019290925533815260ff909152604090208054806139b3576139b36151a3565b600190038181906000526020600020016000905590555b505050505050565b61010481815481106139e357600080fd5b600091825260209091200154905081565b60008282604051602001613a0992919061537b565b60405160208183030381529060405280519060200120905092915050565b6000613a32816140dd565b60fb5461010b5460405163a9059cbb60e01b815233600482015260248101919091526001600160a01b039091169063a9059cbb906044016020604051808303816000875af1158015613a88573d6000803e3d6000fd5b505050506040513d601f19601f8201168201806040525081019061105991906151b9565b600082815260656020526040902060010154613ac7816140dd565b610fcc8383614189565b600081815260fe60209081526040808320338452600f8101835292819020805482518185028101850190935280835260609493830182828015613b3357602002820191906000526020600020905b815481526020019060010190808311613b1f575b5050505050915050919050565b6000613b4b816140dd565b5060fb80546001600160a01b0319166001600160a01b0392909216919091179055565b600083815260fe60205260409020600d81015484919060ff16613bf25760405162461bcd60e51b815260206004820152603660248201527f526576657273652041756374696f6e3a205468652073656c656374656420417560448201527518dd1a5bdb881a5908191bd95cdb89dd08195e1a5cdd60521b6064820152608401610a90565b60fd546040517f081812fc0000000000000000000000000000000000000000000000000000000081526004810186905230916001600160a01b03169063081812fc90602401602060405180830381865afa158015613c54573d6000803e3d6000fd5b505050506040513d601f19601f82011682018060405250810190613c78919061535e565b6001600160a01b031614613d1a5760405162461bcd60e51b815260206004820152604960248201527f526576657273652041756374696f6e3a20546865206d6f646966696572206e6560448201527f656420746f20626520617070726f766520746f2074686520636f6e747261637460648201527f20666f72206275726e0000000000000000000000000000000000000000000000608482015260a401610a90565b600085815260fe60205260409020600781015442118015613d3f575080600801544211155b613db15760405162461bcd60e51b815260206004820152603460248201527f526576657273652041756374696f6e3a204974206973206f7574206f6620746960448201527f6d6520746f207573652061206d6f6469666965720000000000000000000000006064820152608401610a90565b60fd546040516331a9108f60e11b81526004810187905233916001600160a01b031690636352211e90602401602060405180830381865afa158015613dfa573d6000803e3d6000fd5b505050506040513d601f19601f82011682018060405250810190613e1e919061535e565b6001600160a01b031614613e9a5760405162461bcd60e51b815260206004820152602960248201527f526576657273652041756374696f6e3a20546865206d6f64696669657220697360448201527f6e277420796f75727300000000000000000000000000000000000000000000006064820152608401610a90565b60fc546040516331a9108f60e11b81526004810186905233916001600160a01b031690636352211e90602401602060405180830381865afa158015613ee3573d6000803e3d6000fd5b505050506040513d601f19601f82011682018060405250810190613f07919061535e565b6001600160a01b031614613f835760405162461bcd60e51b815260206004820152602760248201527f526576657273652041756374696f6e3a20546865207469636b65742069736e2760448201527f7420796f757273000000000000000000000000000000000000000000000000006064820152608401610a90565b600084815260128201602052604090205460ff166140095760405162461bcd60e51b815260206004820152603360248201527f526576657273652041756374696f6e3a2054686973207469636b65742069732060448201527f6e6f7420696e20746869732061756374696f6e000000000000000000000000006064820152608401610a90565b60008481526101026020908152604080832080546001810182558185529290932090910187905560fd5490517f42966c68000000000000000000000000000000000000000000000000000000008152600481018890526001600160a01b03909116906342966c6890602401600060405180830381600087803b15801561408e57600080fd5b505af11580156140a2573d6000803e3d6000fd5b5050505050505050505050565b60006140ba816140dd565b5060fd80546001600160a01b0319166001600160a01b0392909216919091179055565b6111d581336145c0565b60008281526065602090815260408083206001600160a01b038516845290915290205460ff166110595760008281526065602090815260408083206001600160a01b03851684529091529020805460ff191660011790556141453390565b6001600160a01b0316816001600160a01b0316837f2f8788117e7eff1d82e926ec794901d17c78024a50270940304540a733656f0d60405160405180910390a45050565b60008281526065602090815260408083206001600160a01b038516845290915290205460ff16156110595760008281526065602090815260408083206001600160a01b0385168085529252808320805460ff1916905551339285917ff6391f5c32d9c69d2a47ea670b442974b53935d1edc7fd64eb21e047a839171b9190a45050565b7f189ab7a9244df0848122154315af71fe140f3db0fe014031783b0946b8c9d2e3611059816140dd565b7f4910fdfa16fed3260ed0e7147f7cc6da11a60208b5b9406d12a635614ffd91435460ff161561426957610fcc83614635565b826001600160a01b03166352d1902d6040518163ffffffff1660e01b8152600401602060405180830381865afa9250505080156142c3575060408051601f3d908101601f191682019092526142c0918101906151db565b60015b6143355760405162461bcd60e51b815260206004820152602e60248201527f45524331393637557067726164653a206e657720696d706c656d656e7461746960448201527f6f6e206973206e6f7420555550530000000000000000000000000000000000006064820152608401610a90565b7f360894a13ba1a3210667c828492db98dca3e2076cc3735a920a3ca505d382bbc81146143ca5760405162461bcd60e51b815260206004820152602960248201527f45524331393637557067726164653a20756e737570706f727465642070726f7860448201527f6961626c655555494400000000000000000000000000000000000000000000006064820152608401610a90565b50610fcc8383836146f3565b600054610100900460ff166144535760405162461bcd60e51b815260206004820152602b60248201527f496e697469616c697a61626c653a20636f6e7472616374206973206e6f74206960448201527f6e697469616c697a696e670000000000000000000000000000000000000000006064820152608401610a90565b565b600081815261010260205260408120805484835b828110156145b65760fd5484546145a29184916001600160a01b039091169063e6c3b1f6908890869081106144a0576144a0615174565b90600052602060002001546040518263ffffffff1660e01b81526004016144c991815260200190565b602060405180830381865afa1580156144e6573d6000803e3d6000fd5b505050506040513d601f19601f8201168201806040525081019061450a91906151db565b60fd5487546001600160a01b039091169063cb9144919089908790811061453357614533615174565b90600052602060002001546040518263ffffffff1660e01b815260040161455c91815260200190565b602060405180830381865afa158015614579573d6000803e3d6000fd5b505050506040513d601f19601f8201168201806040525081019061459d91906151db565b61471e565b9150806145ae8161518a565b915050614469565b5095945050505050565b60008281526065602090815260408083206001600160a01b038516845290915290205460ff16611059576145f38161480d565b6145fe83602061481f565b60405160200161460f9291906153a1565b60408051601f198184030181529082905262461bcd60e51b8252610a9091600401615422565b6001600160a01b0381163b6146b25760405162461bcd60e51b815260206004820152602d60248201527f455243313936373a206e657720696d706c656d656e746174696f6e206973206e60448201527f6f74206120636f6e7472616374000000000000000000000000000000000000006064820152608401610a90565b7f360894a13ba1a3210667c828492db98dca3e2076cc3735a920a3ca505d382bbc80546001600160a01b0319166001600160a01b0392909216919091179055565b6146fc83614a00565b6000825111806147095750805b15610fcc576147188383614a40565b50505050565b60008261474f57614730600a8561520a565b93508161473e85600a615137565b614748919061514e565b9050610c7f565b600183036147a55761476284600a615137565b93506000614770838661520a565b9050600561477f600a83615435565b106147925761478f60058261514e565b90505b61479d600a8261520a565b915050610c7f565b600283036147e6576000846147bb84600a615137565b106147c85750600a614748565b6147d383600a615137565b6147dd9086615161565b90509050610c7f565b60038303614803576147f982600a615137565b614748908561514e565b6147488285615137565b6060610a276001600160a01b03831660145b6060600061482e836002615137565b61483990600261514e565b67ffffffffffffffff81111561485157614851614cbf565b6040519080825280601f01601f19166020018201604052801561487b576020820181803683370190505b5090507f3000000000000000000000000000000000000000000000000000000000000000816000815181106148b2576148b2615174565b60200101906001600160f81b031916908160001a9053507f7800000000000000000000000000000000000000000000000000000000000000816001815181106148fd576148fd615174565b60200101906001600160f81b031916908160001a9053506000614921846002615137565b61492c90600161514e565b90505b60018111156149b1577f303132333435363738396162636465660000000000000000000000000000000085600f166010811061496d5761496d615174565b1a60f81b82828151811061498357614983615174565b60200101906001600160f81b031916908160001a90535060049490941c936149aa81615449565b905061492f565b508315610c7f5760405162461bcd60e51b815260206004820181905260248201527f537472696e67733a20686578206c656e67746820696e73756666696369656e746044820152606401610a90565b614a0981614635565b6040516001600160a01b038216907fbc7cd75a20ee27fd9adebab32041f755214dbc6bffa90cc0225b39da2e5c2d3b90600090a250565b6060610c7f838360405180606001604052806027815260200161547d602791396060600080856001600160a01b031685604051614a7d9190615460565b600060405180830381855af49150503d8060008114614ab8576040519150601f19603f3d011682016040523d82523d6000602084013e614abd565b606091505b5091509150614ace86838387614ad8565b9695505050505050565b60608315614b47578251600003614b40576001600160a01b0385163b614b405760405162461bcd60e51b815260206004820152601d60248201527f416464726573733a2063616c6c20746f206e6f6e2d636f6e74726163740000006044820152606401610a90565b5081614b51565b614b518383614b59565b949350505050565b815115614b695781518083602001fd5b8060405162461bcd60e51b8152600401610a909190615422565b600060208284031215614b9557600080fd5b81357fffffffff0000000000000000000000000000000000000000000000000000000081168114610c7f57600080fd5b600060208284031215614bd757600080fd5b5035919050565b60008060408385031215614bf157600080fd5b50508035926020909101359150565b600081518084526020808501945080840160005b83811015614c3057815187529582019590820190600101614c14565b509495945050505050565b604081526000614c4e6040830185614c00565b90508260208301529392505050565b6001600160a01b03811681146111d557600080fd5b60008060408385031215614c8557600080fd5b823591506020830135614c9781614c5d565b809150509250929050565b600060208284031215614cb457600080fd5b8135610c7f81614c5d565b634e487b7160e01b600052604160045260246000fd5b600067ffffffffffffffff80841115614cf057614cf0614cbf565b604051601f8501601f19908116603f01168101908282118183101715614d1857614d18614cbf565b81604052809350858152868686011115614d3157600080fd5b858560208301376000602087830101525050509392505050565b60008060408385031215614d5e57600080fd5b8235614d6981614c5d565b9150602083013567ffffffffffffffff811115614d8557600080fd5b8301601f81018513614d9657600080fd5b614da585823560208401614cd5565b9150509250929050565b600080600060608486031215614dc457600080fd5b83359250602084013591506040840135614ddd81614c5d565b809150509250925092565b600080600060608486031215614dfd57600080fd5b8335614e0881614c5d565b95602085013595506040909401359392505050565b60005b83811015614e38578181015183820152602001614e20565b50506000910152565b60008151808452614e59816020860160208601614e1d565b601f01601f19169290920160200192915050565b602081528151602082015260006020830151614e9460408401826001600160a01b03169052565b506040830151610200806060850152614eb1610220850183614e41565b91506060850151601f19858403016080860152614ece8382614e41565b608087015160a08781019190915287015160c08088019190915287015160e08088019190915287015161010080880191909152870151610120808801919091528701516101408088019190915287015161016080880191909152870151610180808801919091528701516101a08088019190915287015190935090506101c0614f5a8187018315159052565b86015190506101e0614f76868201836001600160a01b03169052565b90950151151593019290925250919050565b600082601f830112614f9957600080fd5b610c7f83833560208501614cd5565b60008060008060008060008060006101208a8c031215614fc757600080fd5b893567ffffffffffffffff80821115614fdf57600080fd5b614feb8d838e01614f88565b9a5060208c013591508082111561500157600080fd5b5061500e8c828d01614f88565b999c999b505050506040880135976060810135976080820135975060a0820135965060c0820135955060e082013594506101009091013592509050565b6000806000806080858703121561506157600080fd5b843593506020850135925060408501359150606085013567ffffffffffffffff81111561508d57600080fd5b61509987828801614f88565b91505092959194509250565b600080604083850312156150b857600080fd5b82359150602083013567ffffffffffffffff8111156150d657600080fd5b614da585828601614f88565b602081526000610c7f6020830184614c00565b60008060006060848603121561510a57600080fd5b505081359360208301359350604090920135919050565b634e487b7160e01b600052601160045260246000fd5b8082028115828204841417610a2757610a27615121565b80820180821115610a2757610a27615121565b81810381811115610a2757610a27615121565b634e487b7160e01b600052603260045260246000fd5b60006001820161519c5761519c615121565b5060010190565b634e487b7160e01b600052603160045260246000fd5b6000602082840312156151cb57600080fd5b81518015158114610c7f57600080fd5b6000602082840312156151ed57600080fd5b5051919050565b634e487b7160e01b600052601260045260246000fd5b600082615219576152196151f4565b500490565b600181811c9082168061523257607f821691505b60208210810361525257634e487b7160e01b600052602260045260246000fd5b50919050565b601f821115610fcc57600081815260208120601f850160051c8101602086101561527f5750805b601f850160051c820191505b818110156139ca5782815560010161528b565b815167ffffffffffffffff8111156152b8576152b8614cbf565b6152cc816152c6845461521e565b84615258565b602080601f83116001811461530157600084156152e95750858301515b600019600386901b1c1916600185901b1785556139ca565b600085815260208120601f198616915b8281101561533057888601518255948401946001909101908401615311565b508582101561534e5787850151600019600388901b60f8161c191681555b5050505050600190811b01905550565b60006020828403121561537057600080fd5b8151610c7f81614c5d565b82815260008251615393816020850160208701614e1d565b919091016020019392505050565b7f416363657373436f6e74726f6c3a206163636f756e74200000000000000000008152600083516153d9816017850160208801614e1d565b7f206973206d697373696e6720726f6c65200000000000000000000000000000006017918401918201528351615416816028840160208801614e1d565b01602801949350505050565b602081526000610c7f6020830184614e41565b600082615444576154446151f4565b500690565b60008161545857615458615121565b506000190190565b60008251615472818460208701614e1d565b919091019291505056fe416464726573733a206c6f772d6c6576656c2064656c65676174652063616c6c206661696c6564a2646970667358221220d3522ca0c07f099ca9d1b377d45308b34f5d54b0aeadcab6e402d8b68c2fedef64736f6c63430008110033",
  "linkReferences": {},
  "deployedLinkReferences": {}
}