{
  "_format": "hh-sol-artifact-1",
  "contractName": "TicketReverseAuction",
  "sourceName": "contracts/NFTTicket.sol",
  "abi": [
    {
      "inputs": [],
      "stateMutability": "nonpayable",
      "type": "constructor"
    },
    {
      "anonymous": false,
      "inputs": [
        {
          "indexed": false,
          "internalType": "address",
          "name": "previousAdmin",
          "type": "address"
        },
        {
          "indexed": false,
          "internalType": "address",
          "name": "newAdmin",
          "type": "address"
        }
      ],
      "name": "AdminChanged",
      "type": "event"
    },
    {
      "anonymous": false,
      "inputs": [
        {
          "indexed": true,
          "internalType": "address",
          "name": "owner",
          "type": "address"
        },
        {
          "indexed": true,
          "internalType": "address",
          "name": "approved",
          "type": "address"
        },
        {
          "indexed": true,
          "internalType": "uint256",
          "name": "tokenId",
          "type": "uint256"
        }
      ],
      "name": "Approval",
      "type": "event"
    },
    {
      "anonymous": false,
      "inputs": [
        {
          "indexed": true,
          "internalType": "address",
          "name": "owner",
          "type": "address"
        },
        {
          "indexed": true,
          "internalType": "address",
          "name": "operator",
          "type": "address"
        },
        {
          "indexed": false,
          "internalType": "bool",
          "name": "approved",
          "type": "bool"
        }
      ],
      "name": "ApprovalForAll",
      "type": "event"
    },
    {
      "anonymous": false,
      "inputs": [
        {
          "indexed": false,
          "internalType": "uint256",
          "name": "_fromTokenId",
          "type": "uint256"
        },
        {
          "indexed": false,
          "internalType": "uint256",
          "name": "_toTokenId",
          "type": "uint256"
        }
      ],
      "name": "BatchMetadataUpdate",
      "type": "event"
    },
    {
      "anonymous": false,
      "inputs": [
        {
          "indexed": true,
          "internalType": "address",
          "name": "beacon",
          "type": "address"
        }
      ],
      "name": "BeaconUpgraded",
      "type": "event"
    },
    {
      "anonymous": false,
      "inputs": [
        {
          "indexed": false,
          "internalType": "uint8",
          "name": "version",
          "type": "uint8"
        }
      ],
      "name": "Initialized",
      "type": "event"
    },
    {
      "anonymous": false,
      "inputs": [
        {
          "indexed": false,
          "internalType": "uint256",
          "name": "_tokenId",
          "type": "uint256"
        }
      ],
      "name": "MetadataUpdate",
      "type": "event"
    },
    {
      "anonymous": false,
      "inputs": [
        {
          "indexed": true,
          "internalType": "bytes32",
          "name": "role",
          "type": "bytes32"
        },
        {
          "indexed": true,
          "internalType": "bytes32",
          "name": "previousAdminRole",
          "type": "bytes32"
        },
        {
          "indexed": true,
          "internalType": "bytes32",
          "name": "newAdminRole",
          "type": "bytes32"
        }
      ],
      "name": "RoleAdminChanged",
      "type": "event"
    },
    {
      "anonymous": false,
      "inputs": [
        {
          "indexed": true,
          "internalType": "bytes32",
          "name": "role",
          "type": "bytes32"
        },
        {
          "indexed": true,
          "internalType": "address",
          "name": "account",
          "type": "address"
        },
        {
          "indexed": true,
          "internalType": "address",
          "name": "sender",
          "type": "address"
        }
      ],
      "name": "RoleGranted",
      "type": "event"
    },
    {
      "anonymous": false,
      "inputs": [
        {
          "indexed": true,
          "internalType": "bytes32",
          "name": "role",
          "type": "bytes32"
        },
        {
          "indexed": true,
          "internalType": "address",
          "name": "account",
          "type": "address"
        },
        {
          "indexed": true,
          "internalType": "address",
          "name": "sender",
          "type": "address"
        }
      ],
      "name": "RoleRevoked",
      "type": "event"
    },
    {
      "anonymous": false,
      "inputs": [
        {
          "indexed": true,
          "internalType": "address",
          "name": "from",
          "type": "address"
        },
        {
          "indexed": true,
          "internalType": "address",
          "name": "to",
          "type": "address"
        },
        {
          "indexed": true,
          "internalType": "uint256",
          "name": "tokenId",
          "type": "uint256"
        }
      ],
      "name": "Transfer",
      "type": "event"
    },
    {
      "anonymous": false,
      "inputs": [
        {
          "indexed": true,
          "internalType": "address",
          "name": "implementation",
          "type": "address"
        }
      ],
      "name": "Upgraded",
      "type": "event"
    },
    {
      "inputs": [],
      "name": "DEFAULT_ADMIN_ROLE",
      "outputs": [
        {
          "internalType": "bytes32",
          "name": "",
          "type": "bytes32"
        }
      ],
      "stateMutability": "view",
      "type": "function"
    },
    {
      "inputs": [],
      "name": "MINTER_ROLE",
      "outputs": [
        {
          "internalType": "bytes32",
          "name": "",
          "type": "bytes32"
        }
      ],
      "stateMutability": "view",
      "type": "function"
    },
    {
      "inputs": [],
      "name": "UPGRADER_ROLE",
      "outputs": [
        {
          "internalType": "bytes32",
          "name": "",
          "type": "bytes32"
        }
      ],
      "stateMutability": "view",
      "type": "function"
    },
    {
      "inputs": [],
      "name": "URI_SETTER_ROLE",
      "outputs": [
        {
          "internalType": "bytes32",
          "name": "",
          "type": "bytes32"
        }
      ],
      "stateMutability": "view",
      "type": "function"
    },
    {
      "inputs": [
        {
          "internalType": "address",
          "name": "to",
          "type": "address"
        },
        {
          "internalType": "uint256",
          "name": "tokenId",
          "type": "uint256"
        }
      ],
      "name": "approve",
      "outputs": [],
      "stateMutability": "nonpayable",
      "type": "function"
    },
    {
      "inputs": [
        {
          "internalType": "address",
          "name": "owner",
          "type": "address"
        }
      ],
      "name": "balanceOf",
      "outputs": [
        {
          "internalType": "uint256",
          "name": "",
          "type": "uint256"
        }
      ],
      "stateMutability": "view",
      "type": "function"
    },
    {
      "inputs": [
        {
          "internalType": "uint256",
          "name": "tokenId",
          "type": "uint256"
        }
      ],
      "name": "burn",
      "outputs": [],
      "stateMutability": "nonpayable",
      "type": "function"
    },
    {
      "inputs": [
        {
          "internalType": "uint256",
          "name": "tokenId",
          "type": "uint256"
        }
      ],
      "name": "getApproved",
      "outputs": [
        {
          "internalType": "address",
          "name": "",
          "type": "address"
        }
      ],
      "stateMutability": "view",
      "type": "function"
    },
    {
      "inputs": [
        {
          "internalType": "bytes32",
          "name": "role",
          "type": "bytes32"
        }
      ],
      "name": "getRoleAdmin",
      "outputs": [
        {
          "internalType": "bytes32",
          "name": "",
          "type": "bytes32"
        }
      ],
      "stateMutability": "view",
      "type": "function"
    },
    {
      "inputs": [
        {
          "internalType": "bytes32",
          "name": "role",
          "type": "bytes32"
        },
        {
          "internalType": "address",
          "name": "account",
          "type": "address"
        }
      ],
      "name": "grantRole",
      "outputs": [],
      "stateMutability": "nonpayable",
      "type": "function"
    },
    {
      "inputs": [
        {
          "internalType": "bytes32",
          "name": "role",
          "type": "bytes32"
        },
        {
          "internalType": "address",
          "name": "account",
          "type": "address"
        }
      ],
      "name": "hasRole",
      "outputs": [
        {
          "internalType": "bool",
          "name": "",
          "type": "bool"
        }
      ],
      "stateMutability": "view",
      "type": "function"
    },
    {
      "inputs": [],
      "name": "initialize",
      "outputs": [],
      "stateMutability": "nonpayable",
      "type": "function"
    },
    {
      "inputs": [
        {
          "internalType": "address",
          "name": "owner",
          "type": "address"
        },
        {
          "internalType": "address",
          "name": "operator",
          "type": "address"
        }
      ],
      "name": "isApprovedForAll",
      "outputs": [
        {
          "internalType": "bool",
          "name": "",
          "type": "bool"
        }
      ],
      "stateMutability": "view",
      "type": "function"
    },
    {
      "inputs": [],
      "name": "name",
      "outputs": [
        {
          "internalType": "string",
          "name": "",
          "type": "string"
        }
      ],
      "stateMutability": "view",
      "type": "function"
    },
    {
      "inputs": [
        {
          "internalType": "uint256",
          "name": "tokenId",
          "type": "uint256"
        }
      ],
      "name": "ownerOf",
      "outputs": [
        {
          "internalType": "address",
          "name": "",
          "type": "address"
        }
      ],
      "stateMutability": "view",
      "type": "function"
    },
    {
      "inputs": [],
      "name": "proxiableUUID",
      "outputs": [
        {
          "internalType": "bytes32",
          "name": "",
          "type": "bytes32"
        }
      ],
      "stateMutability": "view",
      "type": "function"
    },
    {
      "inputs": [
        {
          "internalType": "bytes32",
          "name": "role",
          "type": "bytes32"
        },
        {
          "internalType": "address",
          "name": "account",
          "type": "address"
        }
      ],
      "name": "renounceRole",
      "outputs": [],
      "stateMutability": "nonpayable",
      "type": "function"
    },
    {
      "inputs": [
        {
          "internalType": "bytes32",
          "name": "role",
          "type": "bytes32"
        },
        {
          "internalType": "address",
          "name": "account",
          "type": "address"
        }
      ],
      "name": "revokeRole",
      "outputs": [],
      "stateMutability": "nonpayable",
      "type": "function"
    },
    {
      "inputs": [
        {
          "internalType": "address",
          "name": "to",
          "type": "address"
        },
        {
          "internalType": "uint256",
          "name": "tokenId",
          "type": "uint256"
        }
      ],
      "name": "safeMint",
      "outputs": [],
      "stateMutability": "nonpayable",
      "type": "function"
    },
    {
      "inputs": [
        {
          "internalType": "address",
          "name": "from",
          "type": "address"
        },
        {
          "internalType": "address",
          "name": "to",
          "type": "address"
        },
        {
          "internalType": "uint256",
          "name": "tokenId",
          "type": "uint256"
        }
      ],
      "name": "safeTransferFrom",
      "outputs": [],
      "stateMutability": "nonpayable",
      "type": "function"
    },
    {
      "inputs": [
        {
          "internalType": "address",
          "name": "from",
          "type": "address"
        },
        {
          "internalType": "address",
          "name": "to",
          "type": "address"
        },
        {
          "internalType": "uint256",
          "name": "tokenId",
          "type": "uint256"
        },
        {
          "internalType": "bytes",
          "name": "data",
          "type": "bytes"
        }
      ],
      "name": "safeTransferFrom",
      "outputs": [],
      "stateMutability": "nonpayable",
      "type": "function"
    },
    {
      "inputs": [
        {
          "internalType": "address",
          "name": "operator",
          "type": "address"
        },
        {
          "internalType": "bool",
          "name": "approved",
          "type": "bool"
        }
      ],
      "name": "setApprovalForAll",
      "outputs": [],
      "stateMutability": "nonpayable",
      "type": "function"
    },
    {
      "inputs": [
        {
          "internalType": "uint256",
          "name": "tokenId",
          "type": "uint256"
        },
        {
          "internalType": "string",
          "name": "uri",
          "type": "string"
        }
      ],
      "name": "setTokenURI",
      "outputs": [],
      "stateMutability": "nonpayable",
      "type": "function"
    },
    {
      "inputs": [
        {
          "internalType": "bytes4",
          "name": "interfaceId",
          "type": "bytes4"
        }
      ],
      "name": "supportsInterface",
      "outputs": [
        {
          "internalType": "bool",
          "name": "",
          "type": "bool"
        }
      ],
      "stateMutability": "view",
      "type": "function"
    },
    {
      "inputs": [],
      "name": "symbol",
      "outputs": [
        {
          "internalType": "string",
          "name": "",
          "type": "string"
        }
      ],
      "stateMutability": "view",
      "type": "function"
    },
    {
      "inputs": [
        {
          "internalType": "uint256",
          "name": "tokenId",
          "type": "uint256"
        }
      ],
      "name": "tokenURI",
      "outputs": [
        {
          "internalType": "string",
          "name": "",
          "type": "string"
        }
      ],
      "stateMutability": "view",
      "type": "function"
    },
    {
      "inputs": [
        {
          "internalType": "address",
          "name": "from",
          "type": "address"
        },
        {
          "internalType": "address",
          "name": "to",
          "type": "address"
        },
        {
          "internalType": "uint256",
          "name": "tokenId",
          "type": "uint256"
        }
      ],
      "name": "transferFrom",
      "outputs": [],
      "stateMutability": "nonpayable",
      "type": "function"
    },
    {
      "inputs": [
        {
          "internalType": "address",
          "name": "newImplementation",
          "type": "address"
        }
      ],
      "name": "upgradeTo",
      "outputs": [],
      "stateMutability": "nonpayable",
      "type": "function"
    },
    {
      "inputs": [
        {
          "internalType": "address",
          "name": "newImplementation",
          "type": "address"
        },
        {
          "internalType": "bytes",
          "name": "data",
          "type": "bytes"
        }
      ],
      "name": "upgradeToAndCall",
      "outputs": [],
      "stateMutability": "payable",
      "type": "function"
    }
  ],
  "bytecode": "0x60a0604052306080523480156200001557600080fd5b506200002062000026565b620000e7565b600054610100900460ff1615620000935760405162461bcd60e51b815260206004820152602760248201527f496e697469616c697a61626c653a20636f6e747261637420697320696e697469604482015266616c697a696e6760c81b606482015260840160405180910390fd5b60005460ff90811614620000e5576000805460ff191660ff9081179091556040519081527f7f26b83ff96e1f2b6a682f133852f6798a09c465da95921460cefb38474024989060200160405180910390a15b565b608051612fb16200011f6000396000818161096f015281816109f401528181610b7901528181610bfe0152610ce40152612fb16000f3fe6080604052600436106101c25760003560e01c80636352211e116100f7578063a217fddf11610095578063d539139311610064578063d539139314610537578063d547741f1461056b578063e985e9c51461058b578063f72c0d8b146105d457600080fd5b8063a217fddf146104c2578063a22cb465146104d7578063b88d4fde146104f7578063c87b56dd1461051757600080fd5b80638129fc1c116100d15780638129fc1c1461043257806391d148541461044757806395d89b411461048d578063a1448194146104a257600080fd5b80636352211e146103be57806370a08231146103de5780637f345710146103fe57600080fd5b80632f2ff15d1161016457806342842e0e1161013e57806342842e0e1461035657806342966c68146103765780634f1ef2861461039657806352d1902d146103a957600080fd5b80632f2ff15d146102f657806336568abe146103165780633659cfe61461033657600080fd5b8063095ea7b3116101a0578063095ea7b314610256578063162094c41461027857806323b872dd14610298578063248a9ca3146102b857600080fd5b806301ffc9a7146101c757806306fdde03146101fc578063081812fc1461021e575b600080fd5b3480156101d357600080fd5b506101e76101e23660046128f0565b610608565b60405190151581526020015b60405180910390f35b34801561020857600080fd5b50610211610619565b6040516101f3919061295d565b34801561022a57600080fd5b5061023e610239366004612970565b6106ab565b6040516001600160a01b0390911681526020016101f3565b34801561026257600080fd5b506102766102713660046129a5565b6106d2565b005b34801561028457600080fd5b50610276610293366004612a5b565b610808565b3480156102a457600080fd5b506102766102b3366004612ab6565b61083c565b3480156102c457600080fd5b506102e86102d3366004612970565b600090815260fb602052604090206001015490565b6040519081526020016101f3565b34801561030257600080fd5b50610276610311366004612af2565b6108b4565b34801561032257600080fd5b50610276610331366004612af2565b6108d9565b34801561034257600080fd5b50610276610351366004612b1e565b610965565b34801561036257600080fd5b50610276610371366004612ab6565b610ae0565b34801561038257600080fd5b50610276610391366004612970565b610afb565b6102766103a4366004612b59565b610b6f565b3480156103b557600080fd5b506102e8610cd7565b3480156103ca57600080fd5b5061023e6103d9366004612970565b610d9c565b3480156103ea57600080fd5b506102e86103f9366004612b1e565b610e01565b34801561040a57600080fd5b506102e87f7804d923f43a17d325d77e781528e0793b2edd9890ab45fc64efd7b4b427744c81565b34801561043e57600080fd5b50610276610e9b565b34801561045357600080fd5b506101e7610462366004612af2565b600091825260fb602090815260408084206001600160a01b0393909316845291905290205460ff1690565b34801561049957600080fd5b5061021161107b565b3480156104ae57600080fd5b506102766104bd3660046129a5565b61108a565b3480156104ce57600080fd5b506102e8600081565b3480156104e357600080fd5b506102766104f2366004612b9d565b6110be565b34801561050357600080fd5b50610276610512366004612bd9565b6110c9565b34801561052357600080fd5b50610211610532366004612970565b611147565b34801561054357600080fd5b506102e87f9f2df0fed2c77648de5860a4cc508cd0818c85b8b8a1ab4ceeef8d981c8956a681565b34801561057757600080fd5b50610276610586366004612af2565b611152565b34801561059757600080fd5b506101e76105a6366004612c41565b6001600160a01b039182166000908152606a6020908152604080832093909416825291909152205460ff1690565b3480156105e057600080fd5b506102e87f189ab7a9244df0848122154315af71fe140f3db0fe014031783b0946b8c9d2e381565b600061061382611177565b92915050565b60606065805461062890612c6b565b80601f016020809104026020016040519081016040528092919081815260200182805461065490612c6b565b80156106a15780601f10610676576101008083540402835291602001916106a1565b820191906000526020600020905b81548152906001019060200180831161068457829003601f168201915b5050505050905090565b60006106b6826111b5565b506000908152606960205260409020546001600160a01b031690565b60006106dd82610d9c565b9050806001600160a01b0316836001600160a01b03160361076b5760405162461bcd60e51b815260206004820152602160248201527f4552433732313a20617070726f76616c20746f2063757272656e74206f776e6560448201527f720000000000000000000000000000000000000000000000000000000000000060648201526084015b60405180910390fd5b336001600160a01b0382161480610787575061078781336105a6565b6107f95760405162461bcd60e51b815260206004820152603d60248201527f4552433732313a20617070726f76652063616c6c6572206973206e6f7420746f60448201527f6b656e206f776e6572206f7220617070726f76656420666f7220616c6c0000006064820152608401610762565b6108038383611219565b505050565b7f7804d923f43a17d325d77e781528e0793b2edd9890ab45fc64efd7b4b427744c61083281611287565b6108038383611291565b610847335b8261136b565b6108a95760405162461bcd60e51b815260206004820152602d60248201527f4552433732313a2063616c6c6572206973206e6f7420746f6b656e206f776e6560448201526c1c881bdc88185c1c1c9bdd9959609a1b6064820152608401610762565b6108038383836113ea565b600082815260fb60205260409020600101546108cf81611287565b61080383836115e3565b6001600160a01b03811633146109575760405162461bcd60e51b815260206004820152602f60248201527f416363657373436f6e74726f6c3a2063616e206f6e6c792072656e6f756e636560448201527f20726f6c657320666f722073656c6600000000000000000000000000000000006064820152608401610762565b6109618282611685565b5050565b6001600160a01b037f00000000000000000000000000000000000000000000000000000000000000001630036109f25760405162461bcd60e51b815260206004820152602c60248201527f46756e6374696f6e206d7573742062652063616c6c6564207468726f7567682060448201526b19195b1959d85d1958d85b1b60a21b6064820152608401610762565b7f00000000000000000000000000000000000000000000000000000000000000006001600160a01b0316610a4d7f360894a13ba1a3210667c828492db98dca3e2076cc3735a920a3ca505d382bbc546001600160a01b031690565b6001600160a01b031614610ab85760405162461bcd60e51b815260206004820152602c60248201527f46756e6374696f6e206d7573742062652063616c6c6564207468726f7567682060448201526b6163746976652070726f787960a01b6064820152608401610762565b610ac181611708565b60408051600080825260208201909252610add91839190611732565b50565b610803838383604051806020016040528060008152506110c9565b610b0433610841565b610b665760405162461bcd60e51b815260206004820152602d60248201527f4552433732313a2063616c6c6572206973206e6f7420746f6b656e206f776e6560448201526c1c881bdc88185c1c1c9bdd9959609a1b6064820152608401610762565b610add816118d2565b6001600160a01b037f0000000000000000000000000000000000000000000000000000000000000000163003610bfc5760405162461bcd60e51b815260206004820152602c60248201527f46756e6374696f6e206d7573742062652063616c6c6564207468726f7567682060448201526b19195b1959d85d1958d85b1b60a21b6064820152608401610762565b7f00000000000000000000000000000000000000000000000000000000000000006001600160a01b0316610c577f360894a13ba1a3210667c828492db98dca3e2076cc3735a920a3ca505d382bbc546001600160a01b031690565b6001600160a01b031614610cc25760405162461bcd60e51b815260206004820152602c60248201527f46756e6374696f6e206d7573742062652063616c6c6564207468726f7567682060448201526b6163746976652070726f787960a01b6064820152608401610762565b610ccb82611708565b61096182826001611732565b6000306001600160a01b037f00000000000000000000000000000000000000000000000000000000000000001614610d775760405162461bcd60e51b815260206004820152603860248201527f555550535570677261646561626c653a206d757374206e6f742062652063616c60448201527f6c6564207468726f7567682064656c656761746563616c6c00000000000000006064820152608401610762565b507f360894a13ba1a3210667c828492db98dca3e2076cc3735a920a3ca505d382bbc90565b6000818152606760205260408120546001600160a01b0316806106135760405162461bcd60e51b815260206004820152601860248201527f4552433732313a20696e76616c696420746f6b656e20494400000000000000006044820152606401610762565b60006001600160a01b038216610e7f5760405162461bcd60e51b815260206004820152602960248201527f4552433732313a2061646472657373207a65726f206973206e6f74206120766160448201527f6c6964206f776e657200000000000000000000000000000000000000000000006064820152608401610762565b506001600160a01b031660009081526068602052604090205490565b600054610100900460ff1615808015610ebb5750600054600160ff909116105b80610ed55750303b158015610ed5575060005460ff166001145b610f475760405162461bcd60e51b815260206004820152602e60248201527f496e697469616c697a61626c653a20636f6e747261637420697320616c72656160448201527f647920696e697469616c697a65640000000000000000000000000000000000006064820152608401610762565b6000805460ff191660011790558015610f6a576000805461ff0019166101001790555b610fde6040518060400160405280601481526020017f5469636b65745265766572736541756374696f6e0000000000000000000000008152506040518060400160405280600581526020017f544b5452410000000000000000000000000000000000000000000000000000008152506118db565b610fe6611950565b610fee611950565b610ff6611950565b610ffe611950565b6110096000336115e3565b6110337f189ab7a9244df0848122154315af71fe140f3db0fe014031783b0946b8c9d2e3336115e3565b8015610add576000805461ff0019169055604051600181527f7f26b83ff96e1f2b6a682f133852f6798a09c465da95921460cefb38474024989060200160405180910390a150565b60606066805461062890612c6b565b7f9f2df0fed2c77648de5860a4cc508cd0818c85b8b8a1ab4ceeef8d981c8956a66110b481611287565b61080383836119bd565b6109613383836119d7565b6110d3338361136b565b6111355760405162461bcd60e51b815260206004820152602d60248201527f4552433732313a2063616c6c6572206973206e6f7420746f6b656e206f776e6560448201526c1c881bdc88185c1c1c9bdd9959609a1b6064820152608401610762565b61114184848484611aa5565b50505050565b606061061382611b23565b600082815260fb602052604090206001015461116d81611287565b6108038383611685565b60006001600160e01b031982167f7965db0b000000000000000000000000000000000000000000000000000000001480610613575061061382611c3a565b6000818152606760205260409020546001600160a01b0316610add5760405162461bcd60e51b815260206004820152601860248201527f4552433732313a20696e76616c696420746f6b656e20494400000000000000006044820152606401610762565b600081815260696020526040902080546001600160a01b0319166001600160a01b038416908117909155819061124e82610d9c565b6001600160a01b03167f8c5be1e5ebec7d5bd14f71427d1e84f3dd0314c0f7b2291e5b200ac8c7c3b92560405160405180910390a45050565b610add8133611c78565b6000828152606760205260409020546001600160a01b031661131b5760405162461bcd60e51b815260206004820152602e60248201527f45524337323155524953746f726167653a2055524920736574206f66206e6f6e60448201527f6578697374656e7420746f6b656e0000000000000000000000000000000000006064820152608401610762565b60008281526097602052604090206113338282612cf3565b506040518281527ff8e1a15aba9398e019f0b49df1a4fde98ee17ae345cb5f6b5e2c27f5033e8ce79060200160405180910390a15050565b60008061137783610d9c565b9050806001600160a01b0316846001600160a01b031614806113be57506001600160a01b038082166000908152606a602090815260408083209388168352929052205460ff165b806113e25750836001600160a01b03166113d7846106ab565b6001600160a01b0316145b949350505050565b826001600160a01b03166113fd82610d9c565b6001600160a01b0316146114615760405162461bcd60e51b815260206004820152602560248201527f4552433732313a207472616e736665722066726f6d20696e636f72726563742060448201526437bbb732b960d91b6064820152608401610762565b6001600160a01b0382166114dc5760405162461bcd60e51b8152602060048201526024808201527f4552433732313a207472616e7366657220746f20746865207a65726f2061646460448201527f72657373000000000000000000000000000000000000000000000000000000006064820152608401610762565b826001600160a01b03166114ef82610d9c565b6001600160a01b0316146115535760405162461bcd60e51b815260206004820152602560248201527f4552433732313a207472616e736665722066726f6d20696e636f72726563742060448201526437bbb732b960d91b6064820152608401610762565b600081815260696020908152604080832080546001600160a01b03199081169091556001600160a01b0387811680865260688552838620805460001901905590871680865283862080546001019055868652606790945282852080549092168417909155905184937fddf252ad1be2c89b69c2b068fc378daa952ba7f163c4a11628f55a4df523b3ef91a4505050565b600082815260fb602090815260408083206001600160a01b038516845290915290205460ff1661096157600082815260fb602090815260408083206001600160a01b03851684529091529020805460ff191660011790556116413390565b6001600160a01b0316816001600160a01b0316837f2f8788117e7eff1d82e926ec794901d17c78024a50270940304540a733656f0d60405160405180910390a45050565b600082815260fb602090815260408083206001600160a01b038516845290915290205460ff161561096157600082815260fb602090815260408083206001600160a01b0385168085529252808320805460ff1916905551339285917ff6391f5c32d9c69d2a47ea670b442974b53935d1edc7fd64eb21e047a839171b9190a45050565b7f189ab7a9244df0848122154315af71fe140f3db0fe014031783b0946b8c9d2e361096181611287565b7f4910fdfa16fed3260ed0e7147f7cc6da11a60208b5b9406d12a635614ffd91435460ff16156117655761080383611ced565b826001600160a01b03166352d1902d6040518163ffffffff1660e01b8152600401602060405180830381865afa9250505080156117bf575060408051601f3d908101601f191682019092526117bc91810190612db3565b60015b6118315760405162461bcd60e51b815260206004820152602e60248201527f45524331393637557067726164653a206e657720696d706c656d656e7461746960448201527f6f6e206973206e6f7420555550530000000000000000000000000000000000006064820152608401610762565b7f360894a13ba1a3210667c828492db98dca3e2076cc3735a920a3ca505d382bbc81146118c65760405162461bcd60e51b815260206004820152602960248201527f45524331393637557067726164653a20756e737570706f727465642070726f7860448201527f6961626c655555494400000000000000000000000000000000000000000000006064820152608401610762565b50610803838383611dab565b610add81611dd0565b600054610100900460ff166119465760405162461bcd60e51b815260206004820152602b60248201527f496e697469616c697a61626c653a20636f6e7472616374206973206e6f74206960448201526a6e697469616c697a696e6760a81b6064820152608401610762565b6109618282611e10565b600054610100900460ff166119bb5760405162461bcd60e51b815260206004820152602b60248201527f496e697469616c697a61626c653a20636f6e7472616374206973206e6f74206960448201526a6e697469616c697a696e6760a81b6064820152608401610762565b565b610961828260405180602001604052806000815250611e94565b816001600160a01b0316836001600160a01b031603611a385760405162461bcd60e51b815260206004820152601960248201527f4552433732313a20617070726f766520746f2063616c6c6572000000000000006044820152606401610762565b6001600160a01b038381166000818152606a6020908152604080832094871680845294825291829020805460ff191686151590811790915591519182527f17307eab39ab6107e8899845ad3d59bd9653f200f220920489ca2b5937696c31910160405180910390a3505050565b611ab08484846113ea565b611abc84848484611f12565b6111415760405162461bcd60e51b815260206004820152603260248201527f4552433732313a207472616e7366657220746f206e6f6e20455243373231526560448201527131b2b4bb32b91034b6b83632b6b2b73a32b960711b6064820152608401610762565b6060611b2e826111b5565b60008281526097602052604081208054611b4790612c6b565b80601f0160208091040260200160405190810160405280929190818152602001828054611b7390612c6b565b8015611bc05780601f10611b9557610100808354040283529160200191611bc0565b820191906000526020600020905b815481529060010190602001808311611ba357829003601f168201915b505050505090506000611bed604080518082019091526007815266697066733a2f2f60c81b602082015290565b90508051600003611bff575092915050565b815115611c31578082604051602001611c19929190612dcc565b60405160208183030381529060405292505050919050565b6113e28461205e565b60006001600160e01b031982167f490649060000000000000000000000000000000000000000000000000000000014806106135750610613826120e1565b600082815260fb602090815260408083206001600160a01b038516845290915290205460ff1661096157611cab8161217c565b611cb683602061218e565b604051602001611cc7929190612dfb565b60408051601f198184030181529082905262461bcd60e51b82526107629160040161295d565b6001600160a01b0381163b611d6a5760405162461bcd60e51b815260206004820152602d60248201527f455243313936373a206e657720696d706c656d656e746174696f6e206973206e60448201527f6f74206120636f6e7472616374000000000000000000000000000000000000006064820152608401610762565b7f360894a13ba1a3210667c828492db98dca3e2076cc3735a920a3ca505d382bbc80546001600160a01b0319166001600160a01b0392909216919091179055565b611db48361236f565b600082511180611dc15750805b156108035761114183836123af565b611dd9816123d4565b60008181526097602052604090208054611df290612c6b565b159050610add576000818152609760205260408120610add9161288c565b600054610100900460ff16611e7b5760405162461bcd60e51b815260206004820152602b60248201527f496e697469616c697a61626c653a20636f6e7472616374206973206e6f74206960448201526a6e697469616c697a696e6760a81b6064820152608401610762565b6065611e878382612cf3565b5060666108038282612cf3565b611e9e8383612469565b611eab6000848484611f12565b6108035760405162461bcd60e51b815260206004820152603260248201527f4552433732313a207472616e7366657220746f206e6f6e20455243373231526560448201527131b2b4bb32b91034b6b83632b6b2b73a32b960711b6064820152608401610762565b60006001600160a01b0384163b1561205357604051630a85bd0160e11b81526001600160a01b0385169063150b7a0290611f56903390899088908890600401612e7c565b6020604051808303816000875af1925050508015611f91575060408051601f3d908101601f19168201909252611f8e91810190612eae565b60015b612039573d808015611fbf576040519150601f19603f3d011682016040523d82523d6000602084013e611fc4565b606091505b5080516000036120315760405162461bcd60e51b815260206004820152603260248201527f4552433732313a207472616e7366657220746f206e6f6e20455243373231526560448201527131b2b4bb32b91034b6b83632b6b2b73a32b960711b6064820152608401610762565b805181602001fd5b6001600160e01b031916630a85bd0160e11b1490506113e2565b506001949350505050565b6060612069826111b5565b600061208f604080518082019091526007815266697066733a2f2f60c81b602082015290565b905060008151116120af57604051806020016040528060008152506120da565b806120b9846125f4565b6040516020016120ca929190612dcc565b6040516020818303038152906040525b9392505050565b60006001600160e01b031982167f80ac58cd00000000000000000000000000000000000000000000000000000000148061214457506001600160e01b031982167f5b5e139f00000000000000000000000000000000000000000000000000000000145b8061061357507f01ffc9a7000000000000000000000000000000000000000000000000000000006001600160e01b0319831614610613565b60606106136001600160a01b03831660145b6060600061219d836002612ee1565b6121a8906002612ef8565b67ffffffffffffffff8111156121c0576121c06129cf565b6040519080825280601f01601f1916602001820160405280156121ea576020820181803683370190505b5090507f30000000000000000000000000000000000000000000000000000000000000008160008151811061222157612221612f0b565b60200101906001600160f81b031916908160001a9053507f78000000000000000000000000000000000000000000000000000000000000008160018151811061226c5761226c612f0b565b60200101906001600160f81b031916908160001a9053506000612290846002612ee1565b61229b906001612ef8565b90505b6001811115612320577f303132333435363738396162636465660000000000000000000000000000000085600f16601081106122dc576122dc612f0b565b1a60f81b8282815181106122f2576122f2612f0b565b60200101906001600160f81b031916908160001a90535060049490941c9361231981612f21565b905061229e565b5083156120da5760405162461bcd60e51b815260206004820181905260248201527f537472696e67733a20686578206c656e67746820696e73756666696369656e746044820152606401610762565b61237881611ced565b6040516001600160a01b038216907fbc7cd75a20ee27fd9adebab32041f755214dbc6bffa90cc0225b39da2e5c2d3b90600090a250565b60606120da8383604051806060016040528060278152602001612f5560279139612694565b60006123df82610d9c565b90506123ea82610d9c565b600083815260696020908152604080832080546001600160a01b03199081169091556001600160a01b0385168085526068845282852080546000190190558785526067909352818420805490911690555192935084927fddf252ad1be2c89b69c2b068fc378daa952ba7f163c4a11628f55a4df523b3ef908390a45050565b6001600160a01b0382166124bf5760405162461bcd60e51b815260206004820181905260248201527f4552433732313a206d696e7420746f20746865207a65726f20616464726573736044820152606401610762565b6000818152606760205260409020546001600160a01b0316156125245760405162461bcd60e51b815260206004820152601c60248201527f4552433732313a20746f6b656e20616c7265616479206d696e746564000000006044820152606401610762565b6000818152606760205260409020546001600160a01b0316156125895760405162461bcd60e51b815260206004820152601c60248201527f4552433732313a20746f6b656e20616c7265616479206d696e746564000000006044820152606401610762565b6001600160a01b038216600081815260686020908152604080832080546001019055848352606790915280822080546001600160a01b0319168417905551839291907fddf252ad1be2c89b69c2b068fc378daa952ba7f163c4a11628f55a4df523b3ef908290a45050565b606060006126018361270c565b600101905060008167ffffffffffffffff811115612621576126216129cf565b6040519080825280601f01601f19166020018201604052801561264b576020820181803683370190505b5090508181016020015b600019017f3031323334353637383961626364656600000000000000000000000000000000600a86061a8153600a850494508461265557509392505050565b6060600080856001600160a01b0316856040516126b19190612f38565b600060405180830381855af49150503d80600081146126ec576040519150601f19603f3d011682016040523d82523d6000602084013e6126f1565b606091505b5091509150612702868383876127ee565b9695505050505050565b6000807a184f03e93ff9f4daa797ed6e38ed64bf6a1f0100000000000000008310612755577a184f03e93ff9f4daa797ed6e38ed64bf6a1f010000000000000000830492506040015b6d04ee2d6d415b85acef81000000008310612781576d04ee2d6d415b85acef8100000000830492506020015b662386f26fc10000831061279f57662386f26fc10000830492506010015b6305f5e10083106127b7576305f5e100830492506008015b61271083106127cb57612710830492506004015b606483106127dd576064830492506002015b600a83106106135760010192915050565b6060831561285d578251600003612856576001600160a01b0385163b6128565760405162461bcd60e51b815260206004820152601d60248201527f416464726573733a2063616c6c20746f206e6f6e2d636f6e74726163740000006044820152606401610762565b50816113e2565b6113e283838151156128725781518083602001fd5b8060405162461bcd60e51b8152600401610762919061295d565b50805461289890612c6b565b6000825580601f106128a8575050565b601f016020900490600052602060002090810190610add91905b808211156128d657600081556001016128c2565b5090565b6001600160e01b031981168114610add57600080fd5b60006020828403121561290257600080fd5b81356120da816128da565b60005b83811015612928578181015183820152602001612910565b50506000910152565b6000815180845261294981602086016020860161290d565b601f01601f19169290920160200192915050565b6020815260006120da6020830184612931565b60006020828403121561298257600080fd5b5035919050565b80356001600160a01b03811681146129a057600080fd5b919050565b600080604083850312156129b857600080fd5b6129c183612989565b946020939093013593505050565b634e487b7160e01b600052604160045260246000fd5b600067ffffffffffffffff80841115612a0057612a006129cf565b604051601f8501601f19908116603f01168101908282118183101715612a2857612a286129cf565b81604052809350858152868686011115612a4157600080fd5b858560208301376000602087830101525050509392505050565b60008060408385031215612a6e57600080fd5b82359150602083013567ffffffffffffffff811115612a8c57600080fd5b8301601f81018513612a9d57600080fd5b612aac858235602084016129e5565b9150509250929050565b600080600060608486031215612acb57600080fd5b612ad484612989565b9250612ae260208501612989565b9150604084013590509250925092565b60008060408385031215612b0557600080fd5b82359150612b1560208401612989565b90509250929050565b600060208284031215612b3057600080fd5b6120da82612989565b600082601f830112612b4a57600080fd5b6120da838335602085016129e5565b60008060408385031215612b6c57600080fd5b612b7583612989565b9150602083013567ffffffffffffffff811115612b9157600080fd5b612aac85828601612b39565b60008060408385031215612bb057600080fd5b612bb983612989565b915060208301358015158114612bce57600080fd5b809150509250929050565b60008060008060808587031215612bef57600080fd5b612bf885612989565b9350612c0660208601612989565b925060408501359150606085013567ffffffffffffffff811115612c2957600080fd5b612c3587828801612b39565b91505092959194509250565b60008060408385031215612c5457600080fd5b612c5d83612989565b9150612b1560208401612989565b600181811c90821680612c7f57607f821691505b602082108103612c9f57634e487b7160e01b600052602260045260246000fd5b50919050565b601f82111561080357600081815260208120601f850160051c81016020861015612ccc5750805b601f850160051c820191505b81811015612ceb57828155600101612cd8565b505050505050565b815167ffffffffffffffff811115612d0d57612d0d6129cf565b612d2181612d1b8454612c6b565b84612ca5565b602080601f831160018114612d565760008415612d3e5750858301515b600019600386901b1c1916600185901b178555612ceb565b600085815260208120601f198616915b82811015612d8557888601518255948401946001909101908401612d66565b5085821015612da35787850151600019600388901b60f8161c191681555b5050505050600190811b01905550565b600060208284031215612dc557600080fd5b5051919050565b60008351612dde81846020880161290d565b835190830190612df281836020880161290d565b01949350505050565b7f416363657373436f6e74726f6c3a206163636f756e7420000000000000000000815260008351612e3381601785016020880161290d565b7f206973206d697373696e6720726f6c65200000000000000000000000000000006017918401918201528351612e7081602884016020880161290d565b01602801949350505050565b60006001600160a01b038087168352808616602084015250836040830152608060608301526127026080830184612931565b600060208284031215612ec057600080fd5b81516120da816128da565b634e487b7160e01b600052601160045260246000fd5b808202811582820484141761061357610613612ecb565b8082018082111561061357610613612ecb565b634e487b7160e01b600052603260045260246000fd5b600081612f3057612f30612ecb565b506000190190565b60008251612f4a81846020870161290d565b919091019291505056fe416464726573733a206c6f772d6c6576656c2064656c65676174652063616c6c206661696c6564a264697066735822122042b0e0146ebcbb244a580a3820eec26942ac767bb0f1fa1bc76cbfcc694eac7e64736f6c63430008110033",
  "linkReferences": {},
  "deployedLinkReferences": {}
}